:020000040800F2
:10000000D00C0020C9000008312C00086125000830
:1000100000000000000000000000000000000000E0
:10002000000000000000000000000000752D000826
:100030000000000000000000252D0008772D0008BA
:10004000DB00000800000000DB000008DB00000807
:10005000DB00000899040008DB000008A304000886
:1000600000000000250400083D040008DB00000833
:10007000FD010008DB000008DB00000800000000B4
:10008000DB0000080000000000000000DB000008AA
:1000900000000000DB000008DB000008DB000008B7
:1000A00000000000DB00000800000000DB0000088A
:1000B0000448854600F090F800480047FD370008E6
:1000C000C046C046D00C0020044880470448004782
:1000D000FEE7FEE7FEE7FEE7FEE7FEE7092E000883
:1000E000B100000830B50B46014600202022012453
:1000F00009E00D46D5409D4205D31D469540491B5C
:100100002546954040191546521E002DF1DC30BDA4
:10011000F0B51FB40646002082B005464024019188
:1001200000901BE0019922460F46304600F020F86F
:10013000049A059B801A994110D31046194622460D
:1001400000F039F8361A8F4101972246012000212C
:10015000009F00F030F838184D4100902046641E92
:100160000028DFDC019B00982946324607B0F0BD2D
:1001700010B5202A04DB0846203AD040002110BDEB
:100180000B46D340D0402024A21A91400843194680
:1001900010BDD2B201E00270401C491EFBD2704774
:1001A0000022F6E710B513460A4604461946FFF743
:1001B000F0FF204610BD10B5202A04DB0146203A8E
:1001C0009140002010BD914020239C1A0346E3403B
:1001D0001943904010BD0000064C0125064E05E075
:1001E000E36807CC2B430C3C98471034B442F7D358
:1001F000FFF762FF94580008B458000810B5024891
:1002000000F0E5F910BD0000C800002010B501465F
:10021000406A826B50231A420AD1816B012252023A
:10022000114381630168CA681205920F05D020E06E
:10023000006B026B0846904710BD827E002A18D1E1
:100240000A68120715D58A6853070122002B09DBBB
:100250004B680C24A3434B60816B130299431143F9
:10026000816306E0816B202319438163C16B1143D5
:10027000C16300F0A9F910BD10B5406A816B40223E
:1002800011438163C16B04221143C16300F09EF9E5
:1002900010BD10B5406A00F098F910BDF8B50446DD
:1002A00000200090206881688907890F012905D105
:1002B0000168C90731D1C16809042ED48168184A80
:1002C00010261140012500291AD181682943816037
:1002D000154814490068FFF705FF00E0401E009034
:1002E0000028FBD100F05CFD074611E000F058FD4E
:1002F000C01B02280CD920680068C043C00707D083
:10030000A06B3043A063E06B2843E0630120F8BD9D
:1003100020680068C043C007E8D10020F8BD000095
:100320001700008040420F001C00002010B5094C4F
:10033000204600F015F855280AD05521204600F037
:1003400025F8FF2000F00CF8552801D0012010BD41
:10035000002010BDFF0F000010B5FFF7E7FF10BD34
:100360001FB5002269460A736423022203A96C4662
:100370000EC413460246A021034800F077FE6946EA
:10038000087B04B010BD00004C01002003B583B011
:100390000122642304A901920293009102460223E0
:1003A000A021044800F00CFF052000F0A9FB05B0D7
:1003B00000BD00004C01002010B5124803F0A6FA61
:1003C0001149104803F06DFB0E4803F0B7FA0FA374
:1003D00032220A210B4803F041FB0A4803F059FB83
:1003E0000C4800F02DFB0C480A490163486250227A
:1003F0000A4900F063FA0021094801F0B5FEFFF751
:10040000ABFF10BDD8030020C74B000852544B323D
:100410003000000008010020C80000202800002053
:10042000B801002010B5034803F05CF8024800F062
:10043000B9FA10BDC80000200801002010B502481C
:1004400000F0B0FA10BD00009002002010B5044684
:100450000068054940181421FFF744FE800020641D
:100460000248E06310BD0000F8FFFDBF000002403D
:1004700030B5056C0124AC40C56B6C6004686360EA
:100480004368102B036803D099600068C26030BDD8
:100490009A600068C16030BD10B5012000F096FB85
:1004A00010BD10B5102000F091FB202000F08EFB55
:1004B00010BD72B6FEE70000F8B5002504462034F2
:1004C0000095227D012A39D00122227503689E6899
:1004D000760767D4384F4E68BE424DD09E6A0F787B
:1004E000BA4016439E620123C26A1B079A421FD07C
:1004F000012A1DD0022A1BD0032A19D0042A17D0A2
:10050000052A15D0062A13D0072A11D002688B6855
:1005100056697607760FB3420AD05369DB08DB00D1
:100520005361006842690B7A5B075B0F1A434261B3
:100530000A68102A04D0112A02D038E00220F8BD3F
:100540001E488368102A07D0012292051343836056
:100550000868102803D02AE00122D205F6E71948DE
:1005600017490068FFF7BEFD0A21484300E0401E1E
:1005700000900028FBD11AE0986A0E78B2409043B0
:1005800098620968102901D0112910D10B4882689E
:10059000102904D0012189058A43826007E00121E6
:1005A000C905F9E7816B20221143816301250020F1
:1005B00020752846F8BD000001100000002701400A
:1005C00040420F001C00002070477047704770B514
:1005D000044600680168490702D54168490705D407
:1005E0000168090730D5416809072DD5A16BC906F7
:1005F00004D4A16B012252021143A163C1680C25EE
:100600000905890F00291AD1A17E002917D1016897
:10061000090714D581684A070121002A08DB4268CE
:10062000AA434260A06B0A0290430843A06306E01D
:10063000A06B20221043A063E06B0843E0632046D8
:10064000FFF7C2FF206805602068016809060DD524
:10065000406800060AD5A06B012109040843A06385
:10066000204600F0D9F821688020086020680168E1
:10067000C90613D54168C90610D5A16A10250129FC
:1006800002D0C168C90707D0E16B02221143E163C0
:1006900005602046FFF79AFF2068056070BD0000E6
:1006A000F8B500260446002805D0A06B2546203565
:1006B000002802D007E00120F8BD0020E063287583
:1006C000204600F0ABF8A06B1022C006002870DBBB
:1006D0002068816849076CD4A16B130199430223F8
:1006E0001943A16381688907890F012905D1016830
:1006F000C9070FD1C16809040CD4C16818239943F4
:10070000A3681943C160206801696368890089088A
:10071000194301612068C1683D4B1940C160207ECA
:10072000617E8003C9030843A17E4B031843A36A7B
:10073000012B02D001231B0300E000231843E368D0
:1007400018432369022B09D0002318432B79E57E37
:100750005B0018430123012D02D00AE00423F4E7D3
:10076000002927D0A16B20252943A163E16B194300
:10077000E163E1690D46FF3DC23D02D0256A294390
:1007800008432168CD680543CD600125E16A2D0746
:10079000A94213D0012911D002290FD003290DD06D
:1007A00004290BD0052909D0062907D0072905D02F
:1007B00010E028E0012109040843DAE721684D69C7
:1007C000ED08ED004D6121684D69A78D7F077F0F12
:1007D0003D434D612168C9680E4D2940814207D1D2
:1007E0000020E063A06B80088000401CA06308E04C
:1007F000A06B022188431043A063E06B1843E063C1
:1008000001263046F8BDA06B1043A063F8E7000056
:100810001902FEFFE7FF3F837047000070B586B006
:10082000054614216846FFF7BBFC2049286888422A
:1008300039D11F498A69401502438A618A69024099
:1008400005924A69000202434A6149690026014053
:1008500005910B2000900320019009206946029623
:10086000C00600F0BFF91348134C41C48020266035
:1008700060604000A0608000E06020202061C00136
:1008800060610D48083C00F0DBF8002801D0FFF75C
:1008900010FE2C63002211460C20656200F0C2FDA0
:1008A0000C2000F0B3FD06B070BD00000024014034
:1008B000001002400800024008010020F7B504467D
:1008C00000680025806840073DD426462036307DEC
:1008D00001280AD001273775607E012807D02046FD
:1008E000FFF7DCFC050002D02EE00220FEBDA06B6D
:1008F00016490840FF2101310843A0630020E0634E
:100900003075216B12488862216B1248C862216BD6
:100910001148086321681C20086020684168102283
:10092000114341602068C1683943C1602168206B70
:100930004031029B019A00F0ADF8206881680422E2
:100940001143816000E002252846FEBDFEF1FFFF55
:100950000D020008930200087902000870B5002417
:10096000014620314A78022A03D004218163012400
:1009700016E0026813680E25AB4313600268136823
:100980005B085B0013600122056C1346AB40C56B2E
:100990006B604A7000220A70416B002900D08847C2
:1009A000204670BDF0B4C16B0D6801680C6804226C
:1009B000066C1346B3402B420DD063070BD50B6872
:1009C0009B0602D40B6893430B60016C8A40C16B99
:1009D0004A60C16A19E00227B74002462F4001234E
:1009E0002032002F15D0A70713D50C68A40604D415
:1009F0000C680A25AC430C605370036C02219940CB
:100A0000C36B596000211170816A002916D0F0BCB7
:100A100008470827B7402F4210D024070ED50C688E
:100A20000E25AC430C60046C1946A140C46B616098
:100A30008363537000211170016BE6E7F0BC7047CF
:100A400070B5040021D002212046203005464170B7
:100A5000226811680E48A36801406068266918433F
:100A6000E3683343184363691843A3691843E36990
:100A70001843084310602046FFF7E8FC0021A163FB
:100A8000012068702970084670BD012070BD00000B
:100A90000FC0FFFFF8B504468C46203001780025D2
:100AA000012909D00126067041780027012905D0C7
:100AB000077002252846F8BD0220F8BD02214170CA
:100AC000A763206801684908490001606146204623
:100AD000FFF7CEFCE06A00282068016802D00E22F1
:100AE000114306E00A2211430160206801680422D4
:100AF000914301602068016831430160DAE700003A
:100B000070B5044600F04CF90546601C02D004485C
:100B10000078241800F044F9401BA042FAD370BDBD
:100B20001000002070B5274C012818D00925ED06CB
:100B300010282BD0202811D12021284600F024F99C
:100B4000002839D02021284600F01EF9012805D1BF
:100B50002078DF21084020210843207070BD1A4D05
:100B60000121284600F010F900280AD0012128466A
:100B700000F00AF90128F1D12078FD210840022176
:100B8000EAE72078400840000121E5E710212846E7
:100B900000F0FAF800280AD01021284600F0F4F8F6
:100BA0000128DBD12078F72108400821D4E72078FC
:100BB000FB2108400421CFE72078EF2108401021D5
:100BC000CAE70000000000200014004810B50449E6
:100BD0004A69024202D04861FFF7A4FF10BD00003D
:100BE00000040140F8B5002303240125BAE02E4695
:100BF0009E40B44632407CD00E79B607B60F012E27
:100C000001D0022E17D186682746B6465E00B7404F
:100C100000967646BE43B646CF68009EB7407646FD
:100C20003743876046686746BE430F79FF06FF0F6C
:100C30009F40374347600E79F643B6070ED0C6682B
:100C40002746B4465E00B646B7406646BE43B44645
:100C50008F687646B74066463743C7600E79B60759
:100C6000B60F022E14D1DE08B60036180096366A8A
:100C70005F07B446FE0E0F27B646B7406646BE4332
:100C8000B4460F697646B74066463743009E3762E2
:100C900006682746B4465E00B646B7406646BE4381
:100CA0000F79B446BF07BF0F7646B7406646374355
:100CB00007604E68B603B60F53D02D4FBE692E4362
:100CC000BE61BE699F08F607F60F2A4EBF00BE1927
:100CD0000096B6680F27B4469E07360FB646B74053
:100CE0006646BE430927FF06B446B84202D1002734
:100CF00010E036E0204FB84201D101270AE01F4F33
:100D0000B84201D1022705E01D4FB84201D10327A7
:100D100000E005277646B74066463743009EB76039
:100D2000184E36684F689643FF0300D51643154F9B
:100D30003E607E684F689643BF0300D51643114F4F
:100D40007E60BE684F689643FF0200D516430D4F84
:100D5000BE60FE684F689643BF0200D51643094A3D
:100D6000D6605B1C0A681646DE4000D03FE7F8BD3F
:100D70000010024000000140000400480008004844
:100D8000000C0048000401400069084000D0012028
:100D90007047002A01D0816170478162704700006E
:100DA00001488068704700001000002010B5040062
:100DB00003D0A06F002802D007E0012010BD002161
:100DC00074200155204601F09BFB2420A067206879
:100DD0000168490849000160204602F08BFA0128A9
:100DE000ECD0606A002802D0204602F0EBF92068BF
:100DF00041680122D2029143416020688168082243
:100E0000114381602068016801221143016020467E
:100E100002F03EFA10BD70B5024640325378202BE6
:100E20001CD11378012B19D0012313702424547082
:100E3000046825689D432560046825681E03B54342
:100E40002560046825680D43256000680168194322
:100E50000160202050700020107070BD022070BD15
:100E600070B5024640325378202B1BD11378012BEA
:100E700018D0012414702423537003681D68A543FF
:100E80001D6005682B680F263602B343090219431B
:100E90002960006801682143016020205070002013
:100EA000107070BD022070BD70B5040006D02546DC
:100EB000403568780026002802D005E0012070BD8A
:100EC0002E70204600F022FA242068702068016805
:100ED0004908490001600F216068090688432168BC
:100EE000086121688A680120C00382438A60E16842
:100EF0000129A16808D02122920211432268916041
:100F0000E168022902D005E00143F7E701212268E8
:100F1000C902516021684A680F4B1A434A60216830
:100F2000CA688243CA60616920690843A1690902ED
:100F300008432168C860216AE069084321680860A5
:100F400020680168012211430160666420206870F6
:100F50002663AE70002070BD00800002FFB505461C
:100F600004464035687881B0202878D12878012857
:100F700075D001202870FFF713FF0746012200906B
:100F80001923D103204601F0B5FB00283CD12120D4
:100F900068701020A8700026666403986062049848
:100FA00060856663618D2F48FF2903D9FF22228562
:100FB00000903BE0618D218500903DE02046029944
:100FC00001F084FB16E001F0E2FB00281CD1606A0E
:100FD000216800788862606A401C6062608D401EF3
:100FE0006085208D401E80B22085618D002901D052
:100FF00000280CD0608D0A9900283A462046E2D19C
:1010000001F09FFB00281CD0012005B0F0BD009727
:101010000022802120460A9B01F06CFB0028F3D1BE
:10102000608DFF2805D9FF222285009601231B062B
:10103000C4E7608D20850096208D0123C2B25B0637
:10104000BCE721682020C86121684A68064B1A4025
:101050004A606870AE702E700020D6E7FFE702206D
:10106000D3E700000020008000E800FEFFB5054641
:1010700004464035687883B0202875D10C98002844
:1010800014D00D98002811D0287801286CD00120A8
:101090002870FFF785FE0746012200901923D1032F
:1010A000204601F027FB002874D103E00120400214
:1010B00060646FE0222068704020A870002666649B
:1010C0000C9860620D98608566630E980090019799
:1010D00004A90EC9204601F099FA002801D02E700B
:1010E00058E0618D3448FF2905D9FF22228501236C
:1010F0001B06009006E0618D21850090208D012364
:10110000C2B25B062046049901F0E0FA0097002283
:10111000042120460E9B01F0EDFA00283AD1206808
:10112000406A616A0870606A401C6062208D401EDF
:1011300081B22185608D401E6085608D00281FD0A2
:1011400000291DD100970022802120460E9B01F02E
:10115000D1FA00281ED1608DFF2806D9FF222285F2
:1011600001231B06009607E024E0608D2085009691
:10117000208D0123C2B25B062046049901F0A6FA35
:10118000608D0028C2D13A4620460E9901F0D9FA66
:10119000002802D0012007B0F0BD20682021C161E5
:1011A00020684268054B1A4042606970AE702E702C
:1011B0000020F0E70220EEE70024008000E800FEB7
:1011C000FFB5054604464035687883B0202872D1C3
:1011D0000C98002814D00D98002811D028780128E8
:1011E00069D001202870FFF7DBFD0746012200903F
:1011F0001923D103204601F07DFA002871D103E0C4
:101200000120400260646CE0212068704020A870DA
:10121000002666640C9860620D98608566630E987F
:101220000090019704A90EC9204601F01FFA00287A
:1012300001D02E7055E0608DFF2805D9FF22228550
:1012400001231B06009606E0608D20850096208D08
:101250000123C2B25B062046049901F037FA3A46F0
:1012600020460E9901F093FA00283AD1606A21686D
:1012700000788862606A401C6062608D401E6085F4
:10128000208D401E80B22085618D00291FD000284E
:101290001DD100970022802120460E9B01F02AFAE2
:1012A00000281ED1608DFF2806D9FF222285012348
:1012B0001B06009607E024E0608D20850096208DB7
:1012C0000123C2B25B062046049901F0FFF9608D4C
:1012D0000028C4D13A4620460E9901F032FA00287F
:1012E00002D0012007B0F0BD20682021C161206834
:1012F0004268054B1A4042606970AE702E70002043
:10130000F0E70220EEE7000000E800FE10B586B02E
:10131000044614216846FEF743FF134920688842BB
:1013200020D1124C6169012040040143616161696F
:1013300001400320059140020090122001900020FE
:101340000290032003900420049009206946C006FF
:10135000FFF748FCE169012040050143E161E169D3
:101360000140059106B010BD00540040001002403D
:101370000248816802788918816070471000002057
:1013800010B506480168102211430160032000F0E7
:1013900007F800F027F8002010BD000000200240F0
:1013A00070B504460D4D7D202978C000FEF79AFEE9
:1013B00001460B480068FEF795FE00F093FC0028FC
:1013C00009D1042C07D200222146401E00F02AF841
:1013D00000206C6070BD012070BD00001000002076
:1013E0001C00002008B50848816901221143816171
:1013F000816911400091C26901040A43C261C06958
:101400000840009008BD000000100240002805DBE5
:10141000C106C90E012088400149086070470000DC
:1014200000E100E010B502F005F910BDF8B5054681
:101430000068354CC00352D5E0690026C00007D4CF
:10144000E16920040143E161E16901400126009165
:101450002E480168C90510D4016882151143016046
:10146000FFF79EFC074604E0FFF79AFCC01B6428C8
:1014700024D826480068C005F6D5206A03273F0215
:10148000384020D06968394081421CD0206A226AE5
:10149000B843012109040A432262226A8A43226274
:1014A0002062C0070FD0FFF77BFC009008E0FFF739
:1014B00077FC0099411A1648814201D90320F8BDF2
:1014C000206A8007F3D5206A6968B8430843206220
:1014D000002E04D0E169012000078143E1612878F2
:1014E000C00705D0206BA9688008800008432063EE
:1014F0002878800605D5206B10218843E9680843C9
:1015000020630020F8BD0000001002400070004081
:1015100088130000F8B50F46060059D03A4D2868E8
:10152000C007C00FB84209D22868400840003843BD
:1015300028602868C007C00FB84249D13068334CD2
:1015400081070CD5400704D56068072109020843CC
:1015500060606068F0218843B1680843606030785B
:10156000C00726D0706801280ED0216802280ED04E
:10157000890700292CDA61688908890001436160C4
:10158000FFF70EFC00900DE021688903F1E7890167
:10159000EFE7FFF705FC0099411A1D48814201D988
:1015A0000320F8BD60680C210840716889008842FA
:1015B000EFD12868C007C00FB8420BD9286840088F
:1015C0004000384328602868C007C00FB84201D0E7
:1015D0000120F8BD3078400706D560680721090270
:1015E0008843F1680843606000F028F86168094AA0
:1015F0000906090F515CC840074908600320FFF73E
:10160000CFFE0020F8BD0000002002400010024084
:10161000881300006C4600081C000020044805499F
:1016200000684968044A4905490F515CC840704741
:101630001C000020001002407C46000810B514A3D6
:101640000FCB88B06C460FC415A30FCB0FC4184A3C
:1016500051680C200B4603401648042B16D0082B6B
:1016600014D18B021B0F6C46E45CD26A04AB1207E8
:10167000120F9A5CC90305D500231946FEF748FDF1
:10168000214601E020460C4901F0AEFF08B010BD34
:1016900002030405060708090A0B0C0D0E0F1010B3
:1016A0000102030405060708090A0B0C0D0E0F10B2
:1016B0000010024000127A0000093D00FEB504004F
:1016C00070D02078DC4DC0074AD068680007800FD2
:1016D000012807D068680007800F022809D16868D0
:1016E000C00306D5286880033AD560680028E7D093
:1016F00036E06168012914D001208004002901D05E
:10170000052914D02A68012109048A432A6029681E
:10171000814329606068002816D0FFF741FB064628
:101720000EE028680121090408432860F2E72968CF
:1017300001432960F5E7FFF733FB801B64286ED86F
:1017400028688003F7D50BE0FFF72AFB064604E084
:10175000FFF726FB801B6428F1D828688003F7D4A4
:1017600020780126800700283CDA68680007800F8F
:1017700007D068680007800F022809D16868C00395
:1017800006D42868800716D5E06801280AD112E03F
:10179000E0680028286816D030432860FFF700FB77
:1017A000074605E043E1FFF7FBFAC01B0228C6D855
:1017B00028688007F7D52868F82188432169C9007F
:1017C000084328600EE0400840002860FFF7E8FA70
:1017D000074604E0FFF7E4FAC01B0228AFD82868E8
:1017E0008007F7D42078000722D5E0690028686ACE
:1017F0000ED030436862FFF7D3FA074604E0FFF7E4
:10180000CFFAC01B02289AD8686A8007F7D50FE084
:10181000400840006862FFF7C3FA074605E09DE014
:10182000FFF7BEFAC01B022889D8686A8007F7D480
:10183000207804274007002860DA00200190E8693A
:10184000C00008D4E969B8060143E961E9690140CB
:1018500001200091019079480168C90511D40168FF
:10186000821511430160FFF79BFA009005E0FFF736
:1018700097FA0099401A642870D870480068C0052B
:10188000F5D5A06801280AD0002801D0052810D07D
:10189000286A400840002862286AB84301E0286AA4
:1018A00030432862A068002812D0FFF779FA009030
:1018B0000AE0286A38432862F1E7FFF771FA0099D5
:1018C000411A5F48814249D8286A8007F5D50DE062
:1018D000FFF766FA009006E0FFF762FA0099411AF6
:1018E000574881423AD8286A8007F5D401980028E1
:1018F00004D0E969012000078143E9612078C0062E
:1019000035D5606901280CD0401D686B23D0384361
:101910006863686B400840006863FFF741FA064659
:1019200022E0686B38436863686B30436863FFF795
:1019300037FA064604E0FFF733FA801B02285BD82B
:10194000686B8007F7D5686BF8218843A169C900E7
:10195000084368630BE0B8436863F4E74CE0FFF7C3
:101960001FFA801B022847D8686B8007F7D4206ACB
:1019700000285ED069680907890F022942D0012634
:1019800036060228286805D0B0432860FFF708FA19
:10199000044633E0B0432860FFF702FA074604E04C
:1019A000FFF7FEF9C01B022826D828688001F7D46B
:1019B000E86AE16A000900010843E862616AA06A16
:1019C000084369683D22120491430843686028680F
:1019D00030432860FFF7E4F9044604E0FFF7E0F93C
:1019E000001B022808D828688001F7D521E0FFF7FE
:1019F000D7F9001B022801D90320FEBD2868800109
:101A0000F5D416E00128F8D06868E96A01221204CA
:101A1000636A02409A420AD10907E26A090F9142B9
:101A200005D10F2189040840A16A884201D0012014
:101A3000FEBD0020FEBD000000100240007000400E
:101A40008813000070B5040003D0607F002802D026
:101A500006E0012070BD00202077204600F04CF801
:101A6000022060772168CA204862216853204862BA
:101A7000204601F063F9FF250426002824D12068C0
:101A800081681C4A114081602168886862686369C6
:101A9000104322691A43104388602168E068086196
:101AA0002068016922891204114301612068C1681C
:101AB00080229143C16020688068800608D4204657
:101AC00000F0F6F8002803D0206845626677C0E78A
:101AD0002068016C01229204914301642068016C2A
:101AE000A2691143016420684562012060770020EB
:101AF00070BD0000BFFF8FFF00680549884205D117
:101B00000448016A0122D2031143016270470000B8
:101B10000028004000100240F8B50446007F0B4644
:101B200001280FD00120207702206077002A0BD0F7
:101B3000D8789D7800040543587809780002490355
:101B4000084317E00220F8BD5878C10603D5EF21FD
:101B500008400A305870D87801F0E5F80504587844
:101B600001F0E1F800020543987801F0DCF8054344
:101B70001878400305432168CA2048622168532031
:101B80004862204601F0DAF80026FF27002811D12C
:101B90000F480540206845602068C1688022914355
:101BA000C1602068806880060BD4204600F080F871
:101BB000002806D02068476204206077267701203D
:101BC000F8BD206847620120607726770020F8BDC5
:101BD0003FFFFF00F8B50446007F0D46012821D0E5
:101BE0000120207702206077206800278068002A83
:101BF0001AD0400600D4EF702878AE78000406436F
:101C00006878E97800020904084306432168CA207D
:101C10004862216853204862204601F08FF800286E
:101C200034D114E00220F8BD400600D4EF702878CB
:101C300001F079F80604687801F075F800020643AF
:101C4000A87801F070F80643E8780004DDE717484B
:101C50000640206806602068816801229204914352
:101C600081602969E868084321688A6810438860B0
:101C70002068C16880229143C16020688068800626
:101C80000CD4204600F014F8002807D02168FF206B
:101C900048620420607727770120F8BD2168FF2083
:101CA00048620120607727770020F8BD7F7F7F00A2
:101CB00070B504460068C168A0229143C160FFF777
:101CC0006FF87D260546F60006E0FFF769F8401B31
:101CD000B04201D9032070BD2068C0688006F4D5E9
:101CE000002070BD094910B5401E884201D901206D
:101CF00010BD074C60610321081F01F09BFC002010
:101D0000A06107202061002010BD0000FFFFFF0040
:101D100000E000E030B5034620331A7F012A26D0C8
:101D200001221A770325CA682D02AA438D68002470
:101D30002A430125AD02AA434D6800682A430125C4
:101D4000ED02AA430D682A4301252D03AA430D691C
:101D50002A4301256D03AA434D69C9692A43012518
:101D6000AD03AA430A4342641C77002030BD022021
:101D700030BD0000F0B502462032137F012B1BD08E
:101D8000012616770223537705686B68AC687027C5
:101D9000BB430F681F436F600068084B984202D036
:101DA000074B984204D1802349689C4321438160BA
:101DB000567700201077F0BD0220F0BD002C0140C6
:101DC0000004004070B5040005D025462035687F2A
:101DD000002802D006E0012070BD002028772046B0
:101DE00000F014F802206877211D206801F00EF839
:101DF00001204034A071A877E87720706070A0704F
:101E0000E070207160716877002070BDF8B50546FC
:101E10000068204A2049904207D1CA690220024343
:101E2000CA61C96901400091F8BD1C4B9A159842DE
:101E300006D1C8691043C861C86910400090F8BD58
:101E4000174B9842FBD18B690120800403438B61BF
:101E50008969154C01400091124820601020606093
:101E6000234600208021083307C3C9008E00E661A5
:101E70006161A0612046FEF7E3FD002801D0FEF776
:101E800018FB0A480168314301606C622C6265628C
:101E9000F8BD000000040040001002400020004097
:101EA000004801401C000240900200200000014058
:101EB000F8B5054604462035287F0026012817D0AE
:101EC0000120287702206877226890687727FF230F
:101ED000B8431B02984390600868502838D00EDC45
:101EE00020284FD006DC00284CD010281ED149E015
:101EF0000220F8BD302845D0402817D13AE06028AC
:101F00002ED0702819D001221203801A0FD09042CF
:101F10000CD1CB684A688968206801F039F82068DC
:101F20008168012292031143816000E001260120B3
:101F30006877002028773046F8BDCB684A68896802
:101F4000206801F025F82168886838438860EEE74A
:101F5000CA684968206801F011F95021206806E03C
:101F6000CA684968206801F01AF96021206801F008
:101F70001AF8DCE7CA684968206801F0FFF84021D8
:101F80002068F4E7226801461046F0E77047000039
:101F900070B586B0044614216846FEF701F91F4E5D
:101FA0002568092000231E4974130222C006B54289
:101FB0000BD14D6925434D6149696D46214005911D
:101FC00040210EC50121039324E0164EB54211D1E4
:101FD0004C69680104434C614969009201400591D4
:101FE000029303930493019269460F48FEF7FAFDAA
:101FF00006B070BD0D4B9D42FAD14B6923434B6136
:1020000049690192214005918021009103210391AA
:102010000292052104916946E8E7000000040040AF
:102020000010024000200040000400480048014029
:10203000F8B5064604462036307F00270D460128B5
:102040000ED001203077002A0CD0042A1BD0082A99
:102050002FD00C2A3ED00127002030773846F8BD1B
:102060000220F8BD206800F0A7FF206881690822DF
:10207000114381612068826904218A43826120685A
:1020800081692A6912E0206800F0D2FF2068826925
:102090000121C9020A4382612068816901229202FA
:1020A00091438161206881692A691202114381612B
:1020B000D2E7206800F0F6FF2068C16908221143CA
:1020C000C1612068C26904218A43C2612068C16974
:1020D0002A6912E0206801F021F82068C169012214
:1020E000D2021143C1612068C269012189028A4379
:1020F000C2612068C1692A6912021143C161ABE75C
:1021000070B5040005D025462035687F002802D030
:1021100006E0012070BD00202877204600F014F86A
:1021200002206877211D206800F070FE01204034F5
:10213000A071A877E87720706070A070E0702071BF
:1021400060716877002070BD7047000010B50021F5
:10215000034800F063F9024900200968486310BD94
:10216000480200207047000010B5044602222030CB
:1021700000290AD004290DD02046403008290ED06D
:102180004378012B10D0012010BD837F012BFAD1A1
:1021900082770AE0C37F012BF5D1C27705E003788F
:1021A000012BF0D1027000E042700122206800F0A3
:1021B00069FE10492068884205D00F4A904202D03B
:1021C0000E4A904204D1426C0123DB031A4342645D
:1021D00020680122884202D00949884204D18168DE
:1021E0004907490F062902D0016811430160002008
:1021F00010BD0000002C0140004401400048014097
:1022000000040040F8B5044600200D460090214629
:102210002046203140309446002D0AD0042D0DD0A8
:10222000082D10D04278022A12D04278012A11D00B
:1022300075E08A7F022A0BD08A7FF7E7CA7F022ADD
:1022400006D0CA7FF2E70278022A01D00278EDE7D1
:102250000220F8BD6246002A01D1002B5FD1022680
:10226000454F464A002D09D0042D18D0082D27D0FF
:1022700046700C2D44D0012000907BE08E77606A80
:102280008762606AC262616A3D480863226861468B
:102290003432606AFEF7FEFB002840D121E0CE77A1
:1022A000A06A8762A06AC262A16A35480863226890
:1022B00061463832A06AFEF7EDFB00282FD115E009
:1022C0000670E06A8762E06AC262E16A2C480863CD
:1022D000226861463C32E06AFEF7DCFB00281ED132
:1022E00009E02068C168012252021EE02068C1682E
:1022F0000122920219E02068C1680122D20214E092
:10230000206B8762206BC262216B1D4808632268C4
:1023100061464032206BFEF7BDFB002801D0012052
:10232000F8BD2068C168012212031143C160012277
:102330002946206800F0A6FD12492068884205D091
:10234000114A904202D0114A904204D1426C0123BA
:10235000DB031A43426420680122884202D00C4900
:10236000884204D181684907490F062902D00168D3
:10237000114301600098F8BD9F2E0008052F00084A
:102380003D2F0008002C014000440140004801405E
:102390000004004070B504460D460068002200F0BD
:1023A00071FD1B4A194B20689110984205D0194BBA
:1023B000984202D0184B98420AD1036A134207D1BF
:1023C000036A0B4204D1436C0126F603B343436412
:1023D0002068036A134206D1026A0A4203D10168E7
:1023E000490849000160204620300121002D07D016
:1023F000042D07D04034082D06D06170002070BD38
:102400008177FBE7C177F9E72170F7E7002C0140FE
:10241000111100000044014000480140F8B50026B9
:102420000D460446002907D0042D0DD0082D13D0E9
:102430000C2D19D0012652E02068C16801225202F9
:102440009143C160606A16E02068C168012292026F
:102450009143C160A06A0EE02068C1680122D202E7
:102460009143C160E06A06E02068C168012212035E
:102470009143C160206BFEF771FA00222946206863
:1024800000F000FD1B491A4B20688A10984205D0C5
:10249000194B984202D0194B98420AD1036A0B4259
:1024A00007D1036A134204D1436C0127FF03BB43E6
:1024B00043642068036A0B4206D1016A114203D1CA
:1024C0000168490849000160214601202031002DA2
:1024D00007D0042D07D04034082D06D06070304658
:1024E000F8BD8877FBE7C877F9E72070F7E70000C9
:1024F000002C01401111000000440140004801403F
:1025000010B586B0044614216846FDF749FE12490D
:10251000206888421DD111488269012189030A433C
:10252000826182690A4005924269C9000A43426198
:10253000406908400590042000901220019001217C
:10254000032003900291049109206946C006FEF71A
:1025500049FB06B010BD00000038014000100240E9
:10256000FEE701688A69D243920701D400228A6299
:1025700000688169C943C90703D0816901221143F9
:1025800081617047F7B5044600680F468169C94309
:10259000C90636D44168890104D4416801229203F6
:1025A0001143416000262546403520688069C043BC
:1025B000800612D5781CF8D0FEF7F2FB0299401A7B
:1025C000B84201D8002FF0D1616C20200143616432
:1025D0006870AE702E700120FEBD21681020C861A9
:1025E00020682027C7612046FFF7BBFF20684168AD
:1025F000054A11404160606C0421084360646F70BB
:10260000E7E70020FEBD000000E800FEF8B5044644
:10261000164615481D46DAB20090079F0023204653
:1026200000F054F83A462046069900F0B0F8002829
:1026300018D12846F5B2012809D02168300A8862ED
:102640003A462046069900F0A2F800280AD12068F0
:1026500085620097002240212046069B00F04AF840
:10266000002800D00120F8BD00200080F8B5044605
:10267000164615481D46DAB2C3020090079F204651
:1026800000F024F83A462046069900F080F8002829
:1026900018D12846F5B2012809D02168300A88628D
:1026A0003A462046069900F072F800280AD12068C0
:1026B00085620097002280212046069B00F01AF8D0
:1026C000002800D00120F8BD00200080F0B5066889
:1026D000059C7568064F600D384385438805800D5D
:1026E000110408431843204305437560F0BD000002
:1026F000FF63FF03F8B51D4617460E46044609E082
:10270000681C07D0FEF74CFB0699401AA8420BD86C
:10271000002D09D020688169304688430FD0002001
:10272000B842EDD00020F8BD616C20200143616407
:10273000403460700020A07020700120F8BD01209E
:10274000EEE770B516460D4604460FE032462946C0
:102750002046FFF717FF002801D0012070BDFEF7CB
:102760001FFB801BA84208D8002D06D02068806976
:10277000C0438006EAD4002070BD616C2020014374
:102780006164403460700020A0702070E5E770B58F
:1027900016460D46044611E0324629462046FFF70C
:1027A000F1FE002801D0012070BD681C06D0FEF7A4
:1027B000F7FA801BA84208D8002D06D0206880694F
:1027C000C0438007E8D4002070BD616C2020014325
:1027D0006164403460700020A0702070E3E7000066
:1027E0003EB500242549264800940194029412C065
:1027F00004600125856004214460C1600474447450
:102800008574C474FF21C23184614161014618316D
:102810000D7104620838FDF743FF002801D0FDF771
:1028200048FE0120000301900720029000946946B1
:102830001348FDF741FE002801D0FDF73AFE694636
:102840000F480095FDF738FE002801D0FDF731FE56
:102850000320009069460A48FDF72EFE002801D0AB
:10286000FDF727FE1020009069460548FDF724FE7D
:10287000002801D0FDF71DFE3EBD000000240140F0
:10288000C800002008B50C4841690122114341618C
:10289000406910400022009011460920FEF7C2FD59
:1028A0000920FEF7B3FD002211460A20FEF7BAFD0B
:1028B0000A20FEF7ABFD08BD0010024070B586B0DF
:1028C00014216846FDF76CFC254842690121890501
:1028D0000A43426142690A400592426949110A432A
:1028E000426142690A400592426949000A434261D5
:1028F00040691C4E08400590002202213046FEF738
:1029000048FA012531242404009569463046029591
:102910000194FEF767F900210220029103910090D3
:10292000019569463046FEF75DF930206A4631C2AE
:1029300009206946C006FEF755F900221146052018
:10294000FEF770FD0520FEF761FD0022114607200D
:10295000FEF768FD0720FEF759FD06B070BD0000C8
:10296000001002400014004810B514491448012218
:1029700006C0002101608160C16001614161426067
:1029800081610838FEF790FA002801D0FDF791FD2B
:1029900000210B48FEF73FFA002801D0FDF789FD22
:1029A00000210748FEF75CFA002801D0FDF781FD01
:1029B0000448016802011143016010BD0054004049
:1029C0004C0100200000014010B586B0142168467B
:1029D000FDF7E6FB002419491948059412C07F2130
:1029E00001608460C460FF21046141600838FFF722
:1029F00029F8002801D0FDF75CFD6846047044709A
:102A000084700394012269460D480494FFF7E2F8AC
:102A1000002801D0FDF74DFD012069460875487575
:102A20008875CC75024605A90548FFF775F800289A
:102A300001D0FDF73EFD06B010BD000000280040AB
:102A40009801002010B588B01C216846FDF7A8FB4E
:102A50001748164901604B210024890184604160B8
:102A6000046114218461C160FFF7ACF9002801D032
:102A7000FDF71FFD0E48FFF743FB002801D0FDF7CF
:102A800018FD602000900120019002940022694608
:102A900004940748FFF7CCFA002801D0FDF709FDA0
:102AA0000348FFF775FA08B010BD00000020004091
:102AB0000002002010B590B01C2108A8FDF770FBA3
:102AC00020216846FDF76CFB20492148002412C0F4
:102AD000046084603C21C460416080210161083849
:102AE000FFF770F9002801D0FDF7E3FC1848FFF765
:102AF00007FB002801D0FDF7DCFC602008900420D3
:102B000009940C900A940B940D94002208A90E9439
:102B10000F48FFF78DFA002801D0FDF7CAFC01200D
:102B20000094400302940590019403940494694630
:102B300007940748FFF7EEF8002801D0FDF7B9FC2D
:102B40000348FFF725FA10B010BD0000004801400F
:102B50004802002010B58EB0002407940894099410
:102B60000A940B941C2168460C94FDF719FB21482C
:102B70001F490160302184604160046164218461E7
:102B8000C160FFF71FF9002801D0FDF792FC01207A
:102B90000003079007A91748FFF78AF9002801D01A
:102BA000FDF787FC1348FFF7ABFA002801D0FDF7CB
:102BB00080FC0B940BA90F480C94FFF7DBF800285E
:102BC00001D0FDF776FC6020009001200190029476
:102BD0000022694604940748FFF72AFA002801D02A
:102BE000FDF767FC0348FFF7D3F90EB010BD0000F6
:102BF00000040040B801002010B50C480A490160EB
:102C00004B214902416000218160C1600161816105
:102C1000C1610C22016242614162FEF7C7F80028DF
:102C200001D0FDF746FC10BD00380140D402002061
:102C3000FEE70000F8B5374F012202213846FEF7C3
:102C4000A8F8FEF7ADF8344D344C28602078C00762
:102C500010D07D26F600FEF7A3F82968401AB0428E
:102C600005D9002202213846FEF793F8FEE72078C6
:102C70008007F0D50A2168464170022100F056FC19
:102C8000002168464170FEF78BF81926760128600E
:102C9000FEF786F82968401AB04205D900220221C1
:102CA0003846FEF776F8FEE72078C007F0D02078A7
:102CB000800880002070FEF773F8194E2860FEF738
:102CC0006FF82968401AB04214D90025694648783F
:102CD000401C48700120FDF713FF0221684600F0F8
:102CE00025FC6D1CEDB2FF2DF0D32078800880000C
:102CF0002070F8BD20788007E1D5FEF751F82968EB
:102D0000401AB042DBD2002202213846FEF741F8D9
:102D1000FEE70000001400480C0000200000002026
:102D2000DC0500007047002102E00A38C0B2491CEF
:102D30000A28FAD20907090E0843704770B50446FD
:102D40000068C168490613D40021C943C160FEF779
:102D500027F87D260546F60006E0FEF721F8401B21
:102D6000B04201D9032070BD2068C0684006F4D588
:102D7000002070BD704710B5FEF7FAFA10BD0000D4
:102D800030B595B030216846FDF70AFA00240F945B
:102D90001A20009001200D940C9412941194039029
:102DA0001021059007900E94052010941394C004F0
:102DB0000491022506910A90089509940B9468469F
:102DC000FEF77CFC002801D072B6FEE707200C90CD
:102DD0000E9401210D950F940CA8FEF79BFB002883
:102DE00001D072B6FEE707481090C01111901294FE
:102DF000139410A8FEF71AFB002801D072B6FEE764
:102E000015B030BD210001007047000070B50268A8
:102E1000174B184E984201D0B04203D17024A24300
:102E20004C682243144C154D984208D0B04206D04D
:102E3000134EB04203D0A04201D0A84204D10326D1
:102E40003602B243CE6832438026B2434E693243E3
:102E500002608A68C2620A688262984203D0A04215
:102E600001D0A84201D1096901630121416170BD0E
:102E7000002C014000040040004401400048014093
:102E80000020004010B5CB06DB0E0121046A9940FA
:102E90008C430462016A9A401143016210BD10B56F
:102EA000446A0121626A824206D121778069002842
:102EB00022D13E2001551FE0A26A824207D10222A0
:102EC00022778069002817D13F20015514E0E26A7B
:102ED000824207D104222277806900280CD1402049
:102EE000015509E0226B824206D1082222778069CF
:102EF000002801D1412001552046FFF727F9002085
:102F0000207710BD10B5446A616A814201D1012069
:102F10000DE0A16A814201D1022008E0E16A81420C
:102F200001D1042003E0216B814201D108202077E8
:102F30002046FFF717F90020207710BD10B5446A2E
:102F40000121626A824203D121773E20015519E0B6
:102F5000A26A824204D1022020773F20015511E06D
:102F6000E26A824204D1042020774020015509E022
:102F7000226B824204D1082020774120015501E0D4
:102F80003D2001552046FFF701F80020207710BDB5
:102F900030B58468FF252D021B021343AC430B435D
:102FA0002343836030BD826870239A430A4307211C
:102FB0000A43826070470000F0B5026A520852006E
:102FC0000262056A436882697024A24392080C6811
:102FD00092001443022295438A68134E2A43114DEE
:102FE000A84204D0B04202D0104FB84206D1082700
:102FF000BA43CF681743042297433A46A84204D005
:10300000B04202D0094DA84206D103252D02AB43A0
:103010004D691D438B692B4343608461496841635B
:103020000262F0BD002C0140004401400048014014
:1030300070B5026A10239A430262046A4368826987
:1030400073252D02AA430D682D02154320229443B7
:103050008A6812012243104CA04208D11446CA6863
:103060008026B443120122434024A24305E00B4CC6
:10307000A04202D00A4CA04208D10324A402A343D8
:103080004C69A4001C438B699B002343436085610A
:1030900049688163026270BD002C01400044014018
:1030A0000048014070B5026AFF2301339A4302626F
:1030B000046A4368C2697025AA4392080D689200A9
:1030C00015430122520294438A6812022243104C93
:1030D000A04207D1C414A243CC682402224306159F
:1030E000B24305E00B4CA04202D00B4CA04208D1E9
:1030F00003242403A3434C6924011C438B691B0153
:1031000023434360C5614968C163026270BD00002A
:10311000002C0140004401400048014030B5026AE3
:1031200001231B039A430262056A4268C369732440
:103130002402A3430C6824021C4301235B039D4328
:103140008B681B032B430A4DA84205D0094DA842AA
:1031500002D0094DA84205D10125AD03AA434D690E
:10316000AD012A434260C46149680164036230BD15
:10317000002C0140004401400048014030B5036A82
:10318000046A6408640004628469F025AC43120197
:1031900022430A24A3430B438261036230BD30B54E
:1031A000036A1024A34303628469036A0F252D0375
:1031B0001203AC432243A024A343090119438261B3
:1031C000016230BD10B5818CC90707D001684A681B
:1031D00001235B049A43836A1A434A60818C8907FE
:1031E00007D501684A6801231B049A43C36A1A433E
:1031F0004A60818C490707D501684A6801239B040E
:103200009A43036B1A434A60818C090707D501680A
:103210004A680123DB039A43436B1A434A60818C5B
:10322000C90607D50268916801231B039943836B84
:1032300019439160818C890607D501688A6801234A
:103240005B039A43C36B1A438A60818C490612D58B
:1032500003685A6801210905046C8A4322435A60B5
:10326000026C8A4207D10268516803235B059943C7
:10327000436C19435160818C090607D501684A687F
:103280000123DB04806C9A4302434A6010BD0000B6
:10329000F8B50446002680300660FDF781FD05463E
:1032A00020680068124F000709D501212B46002233
:1032B00049052046009700F0ABF800280DD12068A2
:1032C000006840070BD501212B46002289052046C6
:1032D000009700F09DF8002801D00320F8BD2020C1
:1032E000A067E0672666603426750020F8BD000000
:1032F000FFFFFF0170B5044680682169E269084359
:10330000616900251143084321680A683C4B1A4053
:1033100002430A6021684868032212039043E2686E
:1033200010434860A169206A084321688A680B231A
:103330001B029A4302438A603248006B8007800F69
:1033400016D0012818D0022818D0032812D0102136
:103350000120E369C0032C4A2C4E83422BD1002963
:103360000ED002290FD004290FD008293FD110E038
:103370000021EDE70221EBE70421E9E70821E7E777
:10338000FEF74CF903E0104603E0FEF757F900287A
:1033900031D0616840004A088018FCF7A3FE80B273
:1033A00001461039B14222D81849491C0140000792
:1033B000400F08431DE0002906D0022907D0042948
:1033C00007D0082913D108E0FEF728F903E01046DA
:1033D00003E0FEF733F900280DD061684A081018A1
:1033E000FCF780FE80B201461039B14201D90125B7
:1033F00001E02168C86000206066A066284670BDB4
:10340000F369FFFF0010024000127A00EFFF000096
:10341000FFB581B005461746044660350A9E55E063
:10342000701C53D0FDF7BCFC0499401AB04230D850
:10343000002E2ED020680168490747D5C069C043D7
:10344000000543D401202168C0020862EFF3108018
:10345000012181F3108821680B68FF22A132934378
:103460000B6080F31088EFF31080012181F3108846
:1034700021688A68520852008A6080F310882020F0
:10348000A067E0678034206000202875032005B025
:10349000F0BDEFF31080012181F3108821680B68E3
:1034A000FF22A13293430B6080F31088EFF310806A
:1034B000012181F3108821688A68520852008A60CD
:1034C00080F310882020A067E067DDE72068C169ED
:1034D0000298884304D00020B842A1D00020D6E74B
:1034E0000120F9E770B500680D49884216D1002027
:1034F0000C4D0D4E044600218A0012195200AA5AA2
:10350000491C1018C9B21429F6D31421FCF7EAFD9E
:103510006100641CE4B27052042CECD370BD000056
:1035200000240140280000200200002070B504465D
:1035300000201C4A31E0002365789D402D0601D50E
:10354000282500E012254600401C5B1CDBB2955389
:1035500080B2082BF0D3002325789D402D0601D59D
:10356000282500E012254600401C5B1CDBB2955369
:1035700080B2082BF0D30023A5789D402D0601D5FD
:10358000282500E012254600401C5B1CDBB2955349
:1035900080B2082BF0D3491E89B20029CBD100F0AC
:1035A00003F870BD6C08002010B50346024A0021E4
:1035B0000248FEF727FE10BD6C08002048020020DC
:1035C0000FB410B504A9074B02AA039800F064F8E1
:1035D000044602A9002000F007F9204610BC08BCF0
:1035E00004B01847E9370008F8B5040C8BB226463A
:1035F00082B25E430D0C1046370C584336048019D6
:103600000021794116466E43370C36048019794102
:1036100026466E438919F8BD30B47446641E257879
:10362000641CAB4200D21D46635D5B00E31830BCF6
:10363000184700008307FF22DB0E9A408907090E16
:103640009940002808DB830809489B001B1818686C
:1036500090430843186070470007000F083883083C
:1036600004489B001B18D86990430843D8617047F1
:1036700000E400E000ED00E002E008C8121F08C10D
:10368000002AFAD170477047002001E001C1121FE3
:10369000002AFBD170470000FFB58DB0044600251D
:1036A00006E025280AD0109A0F999047641C6D1CDB
:1036B00020780028F5D1284611B0F0BD002701215F
:1036C000484A009700E00743641C23780846203BE3
:1036D00098401042F7D120782E2817D104200743B4
:1036E0006078641C2A280CD10E98641C02C80091D2
:1036F0000E900BE000990A22514330394018641CA7
:1037000000902078014630390929F3D92078002823
:10371000D1D0642808D0692806D075281ED0109A08
:103720000F9990476D1C5BE00A200E99019001C92A
:103730000E91002802DA40422D2102E0390504D51D
:103740002B216A461172012103E0F90704D02021E0
:10375000F7E70BAE0B910DE00021FAE70A200E9976
:10376000019001C90E91F7E70199FCF7BBFC3031DC
:10377000761E31700028F7D103A8801B20300190FD
:10378000780701D5009801E0012000900199884256
:1037900001DD401A00E000200027009006E002A8AA
:1037A000109AC05D0F9990476D1C7F1C0B98874243
:1037B000F5DB04E0109A30200F9990476D1C0099BA
:1037C000481E00900029F5DC05E03078109A761C40
:1037D0000F9990476D1C0199481E01900029F4DC57
:1037E000641C65E7092801000A68531C0B6010700F
:1037F0007047C000401EFDD27047000086B0FDF744
:10380000BFFDFFF7BDFAFFF759F8FEF7E9FFFFF735
:10381000ABF8FFF79FF9FFF715F9FFF733F8FFF75C
:10382000EBF9FFF747F9FFF7CFF8FFF703FAFCF7DB
:10383000C3FD7D20284CC000A06200212748FEF770
:1038400093FC6420FDF75CF919204001A06264201C
:10385000FDF756F94B20C000A0626420FDF750F937
:1038600000211E48FEF796FD1D4C1E491E4800F023
:1038700018F91D4800F062F822881CA16846FFF77D
:103880009FFE6B4610220021174800F0E7F862887F
:1038900018A16846FFF794FE6B46202200211248CB
:1038A00000F0DCF8A28815A16846FFF789FE6B4698
:1038B000302200210C4800F0D1F8E28811A16846BE
:1038C000FFF77EFE6B4640220021074800F0C6F855
:1038D000054800F0DEF8C8E70020004000020020A4
:1038E0000200002084460008D803002041444331F0
:1038F0003D256400414443323D2564004144433347
:103900003D256400414443343D25640010B5044620
:10391000074B084A084900F007F9204600F04DFC23
:103920000021204600F059FC204600F007F810BDA9
:10393000C94500087D4200087457000810B50168A9
:103940000A7C3821095C406B5143C900FCF728FC14
:1039500010BDF8B504466030007C1F4615460E4683
:10396000002806D0012809D002280CD0032815D140
:103970000FE0E16D20468847401908E0E16D2046E0
:103980008847301A09E0E16D20468847281A85B239
:1039900004E0E16D20468847801986B22246284619
:1039A00040329684D08439460025204600F0BBFA88
:1039B000010003D0204600F0E5F985B22846F8BDA5
:1039C0007FB50546803082B0007B0A99002836D04A
:1039D0006846808A002832D0012811D9022902D0F5
:1039E000032907D00CE06A469289101A6A46401CE7
:1039F000908105E06A46128A101A6A46401C1082BD
:103A0000CE072C46F60F4034002E1AD06846218986
:103A10008089814213D86189814210D9E389A289C2
:103A200005A904A800F008F9002808D00096286B22
:103A300084686846838A028A81892846A04706B03E
:103A400070BD6846A189008A8142F8D8E189814227
:103A5000F5D96389228905A903A8E3E710B5024CCB
:103A6000446000F02DF910BD3D42000870B50446D9
:103A700040341E460D46E189A089049B00F0AAFA55
:103A8000002805D06189208933462A4600F0A2FA31
:103A900070BD10B5044600F02AFB204600F095FBEF
:103AA00010BD10B50446806D884207D020467430A2
:103AB000A16500F0E7FA204600F052F810BD0000C2
:103AC0000149C16570470000393D000800220146E8
:103AD00040310A828A82034A4A82CA82016B49685B
:103AE00008470000FFFF0000F8B50025069F0446C8
:103AF0008565C3624163203002764576264660368E
:103B0000204680307573457401218174C174276328
:103B10003968204688472046FFF7D8FF2046FFF740
:103B2000CFFF3574F8BD00007CB500930C461346FA
:103B30000546084A084900F058FB01A800F09CFA25
:103B40000146684600940279044B2846FFF7CCFFF3
:103B50007CBD0000A5430008C5440008ED3F0008F7
:103B600010B5816D002917D00146803101228A5697
:103B70008A730223CB56CB734C7B002C0CD0012CC8
:103B80000BD07E240457002008562418944200DDF0
:103B90008C73834200DDC87310BD03200856824237
:103BA00000DA887304200856F3E7002B05D0012BB8
:103BB00005D0022B06D0801802E0401800E0801AE1
:103BC00080B27047401AFBE7002B05D0012B05D0CF
:103BD000022B06D0401A02E0801800E0401880B2A4
:103BE0007047801AFBE738B5044605464034E08A42
:103BF0000090638AA28A218A2846FFF737FF803522
:103C0000002816D0012028732189208A814200D201
:103C100020816189608A814200D96081A189A08A5E
:103C2000814200D2A081E189E08A814200D9E0810D
:103C300038BD0020287338BD30B504880D882D1993
:103C4000ADB2AC4205D99C4202D25D1EADB200E0DD
:103C500014469C4201D2954201D8002030BD9442C6
:103C600000D214469D4200D91D460480281B0880BE
:103C7000012030BD38B5C58F049C0094521BC46A26
:103C800092B2A04738BDF8B504464034E688A4880F
:103C9000B21A611A069D92B289B2002D02D0012D8E
:103CA00005D008E0521EC91A92B289B203E0491E3B
:103CB000D21A89B292B20095FFF7DCFFF8BD00007E
:103CC000FFB581B01C46064600F0CCFC194F00251C
:103CD00072682178304690470346B84226D015488E
:103CE000641C401E8342F3D03046039A0299FFF7CA
:103CF00030FE7021895D002906D0012907D00229F4
:103D000008D003290FD10AE00299091804E00399A9
:103D1000091806E00299091A89B2029103E0039991
:103D2000091A89B20391281885B2D1E7284605B04F
:103D3000F0BD0000FFFF00000020704710B50C46EA
:103D400000F006F80122641EA240801A40B210BDA5
:103D500070B50568047B2A78E2406318DBB2082B53
:103D600009D30826341B6D1C05602D78A54015432A
:103D7000083BEAB2DBB201248C40641E144003739A
:103D8000204670BDF3B583B0039C2046603400F03C
:103D900006F90B256557A17E2046FFF7CFFF0746A2
:103DA000E17E2046FFF7CAFF0646217F2046FFF747
:103DB000C5FF01900A202056002858DDA81940426E
:103DC00046B2237CA08832463946FFF7EEFEA0803B
:103DD000237C3246E0883946FFF7F6FEE080A18872
:103DE000267C02460B46002E06D0012E0AD0022E5B
:103DF00040D0032E0FD146E00A26A65773189BB277
:103E0000501907E0591B0A26491C5B1CA65789B2AA
:103E10009BB2B01880B200900398FFF727FE0028ED
:103E200025D00020207260722046A17DFFF790FF10
:103E300007462046E17DFFF78BFF06460022394604
:103E4000039800F029F801223146039800F024F885
:103E500001212046FFF77CFF0028EFD109216156A0
:103E60002046A942E0DB817B039880308174019871
:103E700005B0F0BD0A26A657991B491C5B1C89B2E8
:103E80009BB2421B04E00A264B19A6579BB2821B29
:103E9000521C92B2401CBDE7F7B588B0089C0D4695
:103EA0006034277A607A0590089880300690A07A6E
:103EB000C01BC6B20196B54200D20195A088E18828
:103EC00004910599237C4AB279B203920091FFF7DD
:103ED0006CFE0290237C039A00990498FFF774FE0D
:103EE00002460A98002801D0A17B03E0607B0028ED
:103EF00009D1E17B06988174207C0090019B029996
:103F00000898FFF75DFDB54207D3A81BC5B2059819
:103F10000027401CC0B20590C9E7781920720598A7
:103F200060720BB0F0BD70B50D460146806D8031FA
:103F30001730FF2D0FD8612D01D3098902E0412DE3
:103F400001D3C9880818417800291FD00278AA42F5
:103F5000F8D1801C70BD49890C18264600213046D6
:103F600000F016F804190221304600F011F8361D51
:103F7000A842F3D3207801026078084306D0A84213
:103F800001D1E01C70BDA0780419F3E7002070BDDA
:103F90004018017840780902401880B2704730B567
:103FA000044605460166603400202073217E2046C9
:103FB000FFF7CEFEA072617E2046FFF7C9FEE072D9
:103FC0008035A97CA173002902D00020E07330BDA8
:103FD0000120FBE78A4205D2834201D89A4203D9E5
:103FE000012070478342F9D800207047F0B58E4613
:103FF0005607760F0121B140CFB2014680318C4681
:104000000025897C2C46012901D83D4600D03C463C
:104010000768D2083F7CD2005743426BBFB2D11928
:10402000059A7144002A09D1087828436040087035
:10403000491C5B1E1B041B0CF6D1F0BD0A78761CD4
:104040002A43624076075B1E760F0A709BB2002EF1
:1040500006D06A06150E6206140E002BEED1F0BDD6
:10406000428F51186246927C012A02D80125012A0A
:10407000F3D00124F1E700000821017000487047E7
:104080006C04002070B50546087828704878687080
:104090008878A870C878E8700879287148796871BC
:1040A00088790C46A871E079E871207A2872607AE4
:1040B0006872A07AA872E07AE872207B2873607B2D
:1040C0006873A07BA873E07BE873207C28741121BF
:1040D0002046FFF75DFF688213212046FFF758FF57
:1040E000A88215212046FFF753FFE88270BDFEB578
:1040F000054600242030017E0291467E2868407CDF
:104100000190296827460B7C696B5F43FF043F0CD5
:10411000C919009128463246002100F041F8641C7C
:10412000761C0298E4B2F6B2844202D2019886422A
:10413000E7D3FEBD70B5014620310A7E0C46D100A2
:1041400003688187197CC9004187647EE100C187CB
:104150005D7CA618AE4201D92A1B92B24030D20033
:10416000018089184180998A8180D98AC18070BD77
:1041700010B5FFF7DFFF10BD10B50146002240313A
:104180000A818B884B818A81CA884B889A4201D3E5
:10419000D31A8B810B88D21ACA81FFF724FD10BD78
:1041A0007CB56C46069D6171A27123710095012258
:1041B00084686B460F21A0477CBD30B4846800231F
:1041C000A44630BC1A460A21604730B484680023F4
:1041D000A44630BC1A461021604730B484680023DE
:1041E000A4460A4630BC0B216047F8B515460E467A
:1041F0000446069F00F008F86761A660E560204667
:10420000236100F013F8F8BD07498160C160002206
:1042100001610260416101462031CA708A71826188
:10422000FF20087108727047C545000830B48468E3
:104230000023A44630BC1A4609216047080001D07B
:104240000A2800D100487047FFFF000030B404691D
:104250000023A44630BC1A461921604713B5012239
:10426000046901AB1721A0471CBD30B404690023C9
:10427000A44630BC1A4618216047000038B51848DB
:1042800018290DD004DC142907D0172923D10AE0FE
:10429000192915D020291ED11FE0FEF765FB1CE06F
:1042A0000021017019E00F4C07E001781D7865547A
:1042B000491C521E0170D2B25B1C002AF5D10CE0E1
:1042C0007D21C90000910378064A78210648FCF751
:1042D00045FE002801D0002038BD012038BD000077
:1042E00020000020580300204C01002030B4C46896
:1042F0000023A44630BC1A461921604730B4C46874
:104300000023A4460A4630BC1621604730B4C46876
:104310000023A4460A4630BC1521604730B4C46867
:104320001346A4460A4630BC17216047F8B50C4630
:1043300005462178641C182924D00EDC152919D0D3
:10434000162917D0172923D12078694608706A46A4
:1043500001212846FFF7E2FF0AE0192912D0FE29C1
:1043600016D12278684602702921284600F060F9AB
:10437000641CDEE7227868460270EE680023284657
:10438000B047F5E70023EE681A462846B047D0E765
:10439000F8BD30B4C4680023A44630BC1A461821C6
:1043A00060470000FFB514460A462B4F0546143AF5
:1043B00081B0002638781300FFF72EF90634041771
:1043C0001C42454B002802D02846FFF73FFF2846F5
:1043D000FFF74BFF00212846FFF740FF2146284604
:1043E000FFF73CFF012038702BE021462846FFF7FD
:1043F00035FF26E0002802D02846FFF727FF049F5C
:1044000006E01821284600F019F9183CE4B21837E4
:10441000182C3A46F5D82146284600F00FF90E48E8
:1044200006700EE0284620300279FF2A01D178225A
:1044300002712E6922462846049BB04705B0F0BDA4
:104440003E700120FAE70028FAD02846FFF7FEFE6A
:10445000F6E70020F2E700002100002070B50023FD
:10446000456904461A462821A8470023E5681A46EC
:1044700014212046A84701224B21204600F0D8F8FD
:10448000206829210279204600F0D2F800224B2131
:10449000204600F0CDF8206829210279204600F05E
:1044A000C7F801224B21204600F0C2F820682921DC
:1044B0004279204600F0BCF870BD0160897C203054
:1044C0008170704770B50C46054600F019F8002859
:1044D00011D1092C0AD00A2C00D070BD2846FFF754
:1044E000BDFF06492846FFF721FF04E0034928469F
:1044F000CC31FFF7E2FF012070BD000098570008A3
:10450000F8B51F46144605460B2909D02E4620361D
:104510000D290ED00E291DD00F2926D00020F8BD60
:10452000002A03D02649FFF701FF47E02449491F2D
:10453000F9E7002A07D022490C31FFF7F7FE286877
:10454000C07CB0703AE01E49491DFFF7EFFE2868B5
:10455000807CF6E7FFF71DFF81212846FFF7D6FE96
:1045600021462846FFF7CAFE25E0FFF712FF7879BB
:10457000B178C0000818C6B240212846FFF7C6FE31
:10458000310928461031FFF7C1FE3107090F2846CF
:10459000FFF7B4FEB979B02001432846FFF7AEFE1D
:1045A00038793A68C006010E2846FFF7B7FE641E48
:1045B0002406240EF4D12846FFF798FE0120F8BD0A
:1045C000855700080020704710B520304D2918D0BD
:1045D0000CDC2B2917D004DC29291FD02A290ED165
:1045E00013E02D291ED04C2909D10AE000225029C0
:1045F0001CD051291AD0522918D0532916D0012184
:10460000C171012010BD00BFFBE70020FF21413137
:1046100000BF401C80B28842FAD3F2E70120FCF7C9
:104620006FFAEEE70520FFF7E4F8EAE7C271E8E782
:1046300030B444690023A44630BC6047F8B5154641
:104640000E460446FFF711FE40212046FFF706FE06
:1046500027692B46324617212046B8472046FFF7E8
:10466000F5FDF8BD00212030817170470000000089
:104670000000000001020304060708090000000012
:10468000010203045F00030304040305050E0F0089
:10469000FD0BFD0BFD01B203A205262005008C14C5
:1046A0002109B28514074B8C00220935C51712CA9F
:1046B00028022317A9847912A14428111D4212A1AE
:1046C000447408498412A144062417E77478C18A07
:1046D000244289506244EA3042895022926238066C
:1046E000251BBC843DC4905E84A4384C0E92C3E26A
:1046F00030093522924944B21805002613A9855B7A
:10470000538950225D925494463291885411270760
:1047100032C5141500280DE46D55129144A4DF44F0
:104720003201290EE46C1532914CA45F4412110041
:104730002A0945BC56A1CA44012B0B788C7962B575
:10474000434CAC062C08337C34120A002D0613A40B
:1047500014032E06228514042F0FB4847449A25822
:1047600048140B89623100300DB7845833891ABF61
:1047700049D446003108B4855826FD03320DB7846C
:104780003815194D2A1CEAF5003310B7843815196D
:104790004DAA4496D268920A003412B884B8D22145
:1047A0004D2252914964924354AC023510B784387B
:1047B00016A9506A9D4A6924110900360FB784581A
:1047C00024151155B244E326A900370FB7841857B2
:1047D000A15428154A85524500380EB7843815195A
:1047E000374945C64D5201390EB7843815196F1235
:1047F0002B8D2422013A088286157408013B0A9306
:104800007D35EA600905003C09569578939174015D
:104810003D08379D1977C0013E0A569518D3A968FF
:1048200032033F0EB7853915194D2AD42A87AA01BC
:10483000401DCD7C9EE5D9EA4825A2241151442291
:104840008A1A4549229ACCE450991C50054117BA5E
:10485000849A72881C400E454542914C283A8484C3
:10486000123159004211B8851A1759914D62924977
:10487000846C8709004317B9857B25CA443A07C869
:104880000172801C20874823945905004410B98583
:104890001B36D9442891F251229BD800450CB7858C
:1048A0001907A9D68354EB01460CB7851907A956F9
:1048B0008B5457004715B9857B25CA443A07C80170
:1048C000322B55229450669400480BB8851A421E2C
:1048D0000F451E054907B285141F024A0CB784B85C
:1048E000FA4AA3552615004B15B9851A42894CA4DE
:1048F000261152A912A148A6249448054C09B7854F
:104900001852FDEB014D19BB851D72001D50B5DE1F
:104910002CB1082516A1A8902221D28816134E1377
:10492000B9851BD2629112A388482192841621B6C0
:104930000A4F11BA857CC4D1482811F32C118A166C
:104940006900500DB8851A175991ED3011EB0C51D3
:1049500011BA857CC4D1482811F326511B2D52046D
:104960005217B9851B27D94428114A64A2936C2297
:1049700094082542895400530FB8853A9651B1CC1A
:104980003C2656462500540AB88418879858FF06D6
:10499000550CB9851B52FE55229395005616BA84C4
:1049A0001A62B24428128AD6444291944C07C82114
:1049B0004200571DBE841E422151485411919492C9
:1049C000949254441259442409AE0AC5421900581D
:1049D00013B9841952AA44A6221D4F2532259944A1
:1049E0004A155917BA841A62895024948984222955
:1049F000990E9043E4103944085A0EB8841987B0D0
:104A00005475AA3A553E045B09E46D1526FD4F0422
:104A10005C0CB48414B1982C4D96264B5D09E46C63
:104A20001524FD4F065E0A56B55832528A88245F17
:104A300007186C188700600723CD152201611087C5
:104A400085382455514524114924A38900620EB7A5
:104A50008519522DA2891AB78A2600630D868558BA
:104A6000230989A824519A00640EB785B99A242A8B
:104A7000356E12C94822650E8685381411E9301446
:104A80004E241400660CB5845413998824D327004F
:104A90006712B76D599388A4C64D221949A4A44939
:104AA0000500680BB78519522D2B35BE096909B26F
:104AB0008514A4C341006A0AE36C348A12FD7201B2
:104AC0006B0EB68518424D14098924D189246C07D0
:104AD000B285141F026D138A851C12C91692882490
:104AE000228948229288A4006E0A87851992951A15
:104AF000DF046F0D87855933891A3789DA0800700A
:104B00000FB76D1912D1448D5B4593541500710E8A
:104B1000B76D5912951A37896424916A720A85858E
:104B20001692834C6F00730D86853814519138AC02
:104B3000482800740DA58435325145A6979004008D
:104B4000750A87851932BE555604760F8884184237
:104B5000A244A42D14A48A650077148A841A221111
:104B6000494452D1245113094542910800780E87D7
:104B70008417329A446D3893A8D1047911B86C180F
:104B800042A244A42D14A48A55A543007A0B86841E
:104B9000164699A24CD1007B0CE56C7622992645ED
:104BA000351D057C06E16E140F7D0DE56D164299ED
:104BB0004625359D64007E09379D39A3494D020085
:104BC000000004FFFF00005F000404050603060761
:104BD0001E2000F919F919FA03CE084B0B8E200696
:104BE00000609804210D253BB8841FA81832DF3ED1
:104BF00050220F2B310C0532F80D09514244890027
:104C0000233F32E337353203C90C1C43700C393271
:104C1000E4C80C2433E8818807221E88782088CCD9
:104C2000C04103070D1C43E8818807221E887820B5
:104C3000680C3932E4C80C2433700CC131C4002430
:104C400030906B273DE16291B1716142442542D2BF
:104C50000849232689B88409B544984E48393168F3
:104C6000C4A011A2444809276E161A162E1D00254D
:104C70004AFA2AD8A5B1020F8E4B2770CCB071A387
:104C800046091C3568E0A83123478D193A66DA34A5
:104C9000A2CF8C07304AD47800634E8B493B665ACA
:104CA00031A3468E193552D0A88183468D1B3666B6
:104CB000E0B074030F8A1D04002635343388B5D262
:104CC0004957AE2443B00CC132248B90549B16F14B
:104CD000593544D610A964481925A492103B43AE17
:104CE00050B93286D03C18C2A2509A524501270BC7
:104CF00024318C84072D848800281DE8ABB6AC4194
:104D0000640891214468106D08D11F15A22B42A49C
:104D100046911A456A00291FE8ABB68451149122C6
:104D2000446A1421AA08D1DF942144D1208A0611B3
:104D30001A446814002A186A69DB2481A2820809CF
:104D40003142440B44A4CC2099265010002B101063
:104D50002A3835C2F4ECC10F8811A667002C0E6505
:104D6000B19684076A2419314920002D07A9E8B9B2
:104D7000841F2E08A5309884070A2F1A28239834F8
:104D8000B91226D52861528D12269530A94609936D
:104D90004A986400301D0F2B28A573A9D6342953D7
:104DA000A29456E9F077A9B42A51A6489B55E90E7A
:104DB000013110EA3228BD61A4CA3C78708CFEFF34
:104DC00000321E102B28A5738BDAB83063A2D4B240
:104DD00074E98A1A2D6AD2C20B4DDAF4C10F083376
:104DE00024102B28A5738BDA342955825809722494
:104DF000C8912D5AF0A451B4D6A6CB6C5511278D6D
:104E0000D69D023426102B28C5B2454D5E888E04EF
:104E1000B921C488101B438A0C218A46912145661A
:104E20001899073F2049986E00351E0F2B2815361C
:104E3000BC194B17A5D8346942C868B5649125538D
:104E400054A4092375A60036250F2B282D738AD864
:104E5000B4285482185A4A0A9140E2C2859955E909
:104E60007097AA4499226D56252C0500371A102BED
:104E700028853F204BB62CB565C996255B966CB549
:104E8000646B5AB68600382A112328AD83AB1A9575
:104E9000A9AA083922E488902352AA4C55CB56B5CA
:104EA0002955A25C4A2CD3953063C451AB85A70029
:104EB00039250F2B28AD82A9D6342953A2543ADCC8
:104EC000A55A63C21314A48890258B8C44A1226C2C
:104ED00058252C05003A0C253AB88407EAA17AA097
:104EE000003B11E5BAB68407EAA17AA04692119375
:104EF00004023C18102A3875B1258F295AC246D9A8
:104F0000C993EA16AE5379B6B8003D0A8FB1388519
:104F1000BF87833F3E18102A3805E1844FAA5BC73C
:104F20004EE5656A982C527692B070003F2030337F
:104F300048A5738BDAB83063A2D4B274E98A9A3484
:104F400079F0A4C9B264AB87BA6C9D014060DDEB17
:104F500016E6F3809A3F086CEC64D972C489910715
:104F6000416A3C18EA4A8C996CCD9061440C8D18CA
:104F70004588D42162A34C8D1B6588DC2843E34619
:104F80001D1A376AC4A071A3460C2245680819424D
:104F900065C80C7A3088D09163A30A11240F963C1F
:104FA000D8F22091917E10FC3D08A50041343623B3
:104FB0007845F320CC03408EB5626D8B142D52B42E
:104FC00048C942240B152C54AE18B962C51E047B87
:104FD00010EAC1A007830A96295AA46809A38B0B7B
:104FE0004232333B8805570FC23C10F24048391318
:104FF000054B142C51B044C112E58A3C08F320CC77
:1050000003210F46142C51521F3E48F160C4032166
:105010008F004336352B883DB40C9D3D08744DC13F
:1050200022254D142D51543D88F220CA83280FA209
:105030003C88F220CA03295AA2680983460A963995
:1050400074E84130876C9101442D35338885860F93
:10505000423D10F4604CB923258B943451B444D1B3
:10506000B5FAD3A5254A9A2859A4DC9107631E08EE
:105070007A10AA210045213233688507221E8878DC
:1050800020E28188D2F5FA419007411E047910A4EC
:10509000747DFDE0070C4611303348853F485B6F57
:1050A0005FFCA26CFDB7004733362B9845C40C9FBC
:1050B0003D1075E88CC122464B945D0FA23C90F2E6
:1050C00040CA0329F707614B942D61B4844923A793
:1050D000903C28F362149361890648103333788535
:1050E00092FA2F1FFCC14AFD2F0B490925339884E2
:1050F000FF83024A132F2B28D5FAFF54955EAD7912
:1051000050A4CDB243004B373433888582260A9AA7
:105110002867A4989952860A992A63AC4CB922E66A
:105120004A185CB99221C376468C153255C8542969
:1051300043C5CC942B53CE48411325571A4C0E30FF
:10514000334885B2F5FF7FFBE007044D473733B89E
:1051500085932EDF3D08F720DC83700F443D18E572
:1051600062D40815A346A82043420519122AC89004
:1051700050326688121244949020A284041125248F
:1051800088A8193146CD193567D49C51544851210E
:1051900045154E2733338885920B17B263D7AC99E8
:1051A000AB472A08A928A3848C92226A88A829A13F
:1051B00088842ACFBAE370CB024F2D372B98BDC419
:1051C0002DDF3D108506913933268D942D52B6443E
:1051D00069FDBA44D922658B983463CE101A540FF6
:1051E000C4BD6C9C0E00502032336885566F1E047F
:1051F0007920A29889720BF56E998907221E047195
:10520000C4AC74FD3500513357EBA7BDC42DDF3D51
:10521000108506913933268D942D6176B57E1966F9
:10522000DD9012C54A1031A5C6142244C61E0C7B5F
:1052300030ECC1B824E44109015233333388854747
:105240000F843C18F16044C1957A58A29C890742AA
:105250001E847910E6819072260A962858A26089E9
:1052600082250A962858A26089822B0B532B332B58
:1052700068B5A3EB5A3D2A64A65C11824548122901
:105280007E5A653B876C911B57A9B244C112A6CCCC
:105290003C08E48CE53100540E332348857F10AE82
:1052A00078FDFFDF0155153333888592FAFF5FAE35
:1052B0003371E6C80331AF1AA6025634342B688521
:1052C000A24A4B142C52B048C1320409152B54ACDD
:1052D000143162858A152A47882021828448122148
:1052E0004A842811A26A11636DDC7A0004015752C6
:1052F0003D2BF88562C6965941CC581162C68A107A
:105300003356A410A2328510952984A81021448513
:10531000080D1944AA0835A48A50528C0825C5885E
:10532000D08EC8A021E4880C1A4210114A442811DA
:10533000A13C76D4985963668D1926489A20390085
:105340005833342B680583458C193156C8AA42C599
:105350008C142C52B04451A589111F377D1A6D5AF7
:105360009525CC192957C694A152A5CC182B62CEED
:105370008441035934342B6805830C8B183353ACA8
:10538000908D8A152A66A46091824B9526467CFAF8
:10539000787900E5019407501E407900E5019407F3
:1053A000501E40790005015A1B312B48853F405C57
:1053B000D6A8B5658D5A6BD4DAB246AD356AF6C15A
:1053C0000F105B0EE8B3B684078DE8FFFF8F1E2435
:1053D0005C1F2923980471E2C649376C9CB861E3CD
:1053E000C40D1B27DDB071E2868D13376C9C045D04
:1053F0000EE8A3B6840789E8FFFF8F1E345E19CE3E
:10540000713A2D9206AD43868A08212284A6214452
:105410008410916198115F0852A026850F0C600BD3
:10542000A530BD842144861019611F4F2A282554B8
:105430004C9A1452968CE0A1252DCE244B864CD14B
:105440008307265210314300622130334805C2F4ED
:1054500013432492387961A844B17409F12E9DAAAE
:10546000122F9C904043A61000631C4F2A282D73D6
:105470008AD830295482543AB474978C44A1126D5E
:1054800056A93304006420302B4865FA9111322864
:1054900088B878516859427C98AC4421134F529097
:1054A0004141A80C01651E502A282D83AAD838290D
:1054B00054A258BA071F30265C8C48A1228D58A5EB
:1054C0002C060066142A23B8AC4266CE942246CD40
:1054D0008337C4E8FF1B006729306B4625236450DF
:1054E0001071F1A2D032650971984C598942269EFB
:1054F000B84141C808E164CA4A1831E2861922005D
:1055000068162F334805B2F41B422490B8706148E6
:10551000593274F8DF11690C2433988407011FFC99
:1055200041006A10066496143A2742FFFF270F4C89
:1055300094006B282F333805B2F4B3542508152195
:105540005386482112A592A952B56851913264CA76
:10555000102A428A08A912C492156C09243398842F
:10556000FF40016D305832E80532A4CA904091E204
:10557000018A076FCEA82A858C183262C888212339
:10558000868C183262C8882123868C183262C888BB
:1055900021A3006E134F324805326548A470F1C054
:1055A000903274F8BF236F1D512A48AD83ABDA3CAB
:1055B0002955A29CBA94B84CA7AE44A9226F5A2D83
:1055C0003C0500702330734605328548A071F2C255
:1055D000508962CA12E23099B245255E382181862F
:1055E0004C21C2F43100711F306B46AD2264501063
:1055F00071F1A2D0B284F830598942269E384941CF
:10560000C80861FA0172134A32D8044246503C7805
:1056100010A8542962F4CF007320502A38AD738B40
:105620009A142A42AC04B1126513AE5BA7745D3ABA
:1056300012A54AB8618608007412C92AB81452B477
:1056400079C08414FD5747CE182A75134F32480588
:1056500072F8BF4BA5E881091729C8942176285113
:1056600022388572EA4A942A52AA0C2942A4089543
:1056700029458618196264C89120488220099247FA
:10568000AF2D5C0C00773F5922A88552A554554197
:10569000AA1491429594395386CC194264CE1022B3
:1056A00033620C2122248890223166043112634631
:1056B00010233166043134E84C193465D0944972B2
:1056C00044C991027823502A3885628B4C142A539E
:1056D000A4501162EA509A256BF2243A55454815B8
:1056E0002953A884A165057927306B3685629A1104
:1056F0002155A4509142342A52A8083122C488105E
:105700004B88E1514BCB565AF2A451A344017A1174
:105710004E2A18851F2CACD09C0DEBF2C1070B7BD9
:10572000190974D6A432468E142245FFA810A1711F
:10573000A44AD17F75C650017C09E3BB9684FF6003
:10574000007D1A0974D68442660E95A2FFAA14B988
:1057500041840A91A27F72C44C21007E0FCE703921
:1057600095A1A69618596574080000000004FFFF73
:10577000000000007141000879410008873C0008E2
:105780001815AF19FF1815AE19FF1815A115C8196E
:10579000FF1815A015C019FF1815AE15D5168015E0
:1057A000A8163F15D316001540158D161415201692
:1057B0000015A115C815DA1612158116CF15D916C0
:1057C000F115DB1640152E15A415A619FF1815AEF8
:1057D00015D5168015A8163F15D316001540158D42
:1057E00016141520160015A115C815DA1612158104
:1057F00016EF15D916A115DB1600152E15A415A642
:1058000019FF1815AE15D5168015A8163F15D31615
:10581000001540158D16141520160015A115C81574
:10582000DA1602158116CF15D916F115DB164015BB
:105830002E15A415A619FF1815AE15A415D51650CA
:1058400015A8163F15D31600154015AD168B15D9A2
:10585000162215DB16351532158116FF15A615DA39
:10586000161219FF0001140A6464323200127A0021
:105870000004289610080000800040000001140A6F
:105880006464323200093D000304289610080202C5
:1058900080004000B45800080000002028000000EC
:1058A00078360008DC58000828000020A80C00000A
:1058B0008836000800000000000000000000000022
:1058C00000000000010000000400000000000000D3
:0C58D00000127A00000000000000000040
:04000005080000B13E
:00000001FF
