:020000040800F2
:10000000980C0020C9000008312A0008612300086C
:1000100000000000000000000000000000000000E0
:10002000000000000000000000000000832A00081B
:100030000000000000000000332A0008852A0008A4
:10004000DB00000800000000DB000008DB00000807
:10005000DB00000841050008DB0000084B05000834
:1000600000000000CD040008E5040008DB000008E3
:1000700025020008DB000008DB000008000000008B
:10008000DB0000080000000000000000DB000008AA
:1000900000000000DB000008DB000008DB000008B7
:1000A00000000000DB00000800000000DB0000088A
:1000B0000448854600F0A4F8004800478936000847
:1000C000C046C046980C00200448804704480047BA
:1000D000FEE7FEE7FEE7FEE7FEE7FEE7152B00087A
:1000E000B100000830B50B46014600202022012453
:1000F00009E00D46D5409D4205D31D469540491B5C
:100100002546954040191546521E002DF1DC30BDA4
:1001100070B500242546002801DA01244042002958
:1001200001DA01254942FFF7DDFFAC4200D0404231
:10013000002C00D0494270BDF0B51FB40646002027
:1001400082B005464024019100901BE001992246AF
:100150000F46304600F020F8049A059B801A99411A
:1001600010D310461946224600F039F8361A8F414E
:100170000197224601200021009F00F030F8381836
:100180004D4100902046641E0028DFDC019B009852
:100190002946324607B0F0BD10B5202A04DB0846D8
:1001A000203AD040002110BD0B46D340D04020243F
:1001B000A21A91400843194610BDD2B201E0027064
:1001C000401C491EFBD270470022F6E710B51346CB
:1001D0000A4604461946FFF7F0FF204610BD10B549
:1001E000202A04DB0146203A9140002010BD9140B6
:1001F00020239C1A0346E3401943904010BD0000A1
:10020000064C0125064E05E0E36807CC2B430C3C69
:1002100098471034B442F7D3FFF74EFFA05D0008B3
:10022000C05D000810B5024800F025FA10BD0000BE
:10023000CC00002010B50146406A826B50231A4260
:100240000AD1816B01225202114381630168CA689D
:100250001205920F05D020E0006B026B0846904714
:1002600010BD827E002A18D10A68120715D58A6847
:1002700053070122002B09DB4B680C24A3434B607E
:10028000816B130299431143816306E0816B202344
:1002900019438163C16B1143C16300F0E9F910BDDB
:1002A00010B5406A816B402211438163C16B042207
:1002B0001143C16300F0DEF910BD10B5406A00F0D3
:1002C000D8F910BDF8B50446002000902068816878
:1002D0008907890F012905D10168C90731D1C16892
:1002E00009042ED48168184A1026114001250029DE
:1002F0001AD1816829438160154814490068FFF7C5
:10030000F1FE00E0401E00900028FBD100F092FDBD
:10031000074611E000F08EFDC01B02280CD92068B2
:100320000068C043C00707D0A06B3043A063E06BF8
:100330002843E0630120F8BD20680068C043C0077F
:10034000E8D10020F8BD00001700008040420F00F7
:100350002000002010B5094C204600F03BF855283D
:100360000AD05521204600F077F8FF2000F032F83F
:10037000552801D0012010BD002010BDFF0F000046
:1003800070B5FFF7E7FF002801D0012070BD064DD2
:100390000024A000042100F009F8641C01C5E4B2A7
:1003A000072CF6D3002070BD5C030020F8B50D4685
:1003B0000146002004464E1908E00702301B401E8B
:1003C00080B200F007F8C019641CE4B2AC42F4D368
:1003D000F8BD00001FB5002269460A73642302229B
:1003E00003A96C460EC413460246A021034800F040
:1003F00087FE6946087B04B010BD00005001002054
:1004000070B5FFF7A7FF002801D0012070BD074D90
:100410000024A0000422296800F00AF8641CE4B259
:100420002D1D072CF5D3002070BD00005C030020BB
:10043000F8B516460D460746002409E0E1002846B7
:10044000C840C1B2381980B200F006F8641CE4B2AA
:10045000B442F3D3F8BD000003B583B00122642396
:1004600004A901920293009102460223A0210448AC
:1004700000F0F0FE052000F073FB05B000BD0000A9
:100480005001002010B50C4803F014FB0A4803F09B
:10049000C7F80A4800F004FB0948084901634862AC
:1004A0005022084900F05EFA0021074801F096FE4C
:1004B000FFF766FF10BD0000040400200C010020BF
:1004C000CC0000202C000020BC01002010B5034807
:1004D00002F014FE024800F095FA10BDCC00002096
:1004E0000C01002010B5024800F08CFA10BD00008D
:1004F0009402002010B504460068054940181421F4
:10050000FFF7F0FD800020640248E06310BD0000AA
:10051000F8FFFDBF0000024030B5056C0124AC407F
:10052000C56B6C60046863604368102B036803D07C
:1005300099600068C26030BD9A600068C16030BDDB
:1005400010B5012000F08CFB10BD10B5102000F09C
:1005500087FB202000F084FB10BD72B6FEE7000090
:10056000F8B50025044620340095227D012A39D0B3
:100570000122227503689E68760767D4384F4E685B
:10058000BE424DD09E6A0F78BA4016439E62012348
:10059000C26A1B079A421FD0012A1DD0022A1BD013
:1005A000032A19D0042A17D0052A15D0062A13D0F9
:1005B000072A11D002688B6856697607760FB34216
:1005C0000AD05369DB08DB005361006842690B7A8B
:1005D0005B075B0F1A4342610A68102A04D0112A94
:1005E00002D038E00220F8BD1E488368102A07D0E8
:1005F00001229205134383600868102803D02AE083
:100600000122D205F6E7194817490068FFF76AFD8D
:100610000A21484300E0401E00900028FBD11AE068
:10062000986A0E78B240904398620968102901D008
:10063000112910D10B488268102904D001218905A5
:100640008A43826007E00121C905F9E7816B202216
:10065000114381630125002020752846F8BD000064
:10066000011000000027014040420F002000002040
:1006700070477047704770B50446006801684907C5
:1006800002D54168490705D40168090730D541689A
:1006900009072DD5A16BC90604D4A16B0122520212
:1006A0001143A163C1680C250905890F00291AD1DE
:1006B000A17E002917D10168090714D581684A076E
:1006C0000121002A08DB4268AA434260A06B0A02AB
:1006D00090430843A06306E0A06B20221043A06370
:1006E000E06B0843E0632046FFF7C2FF2068056027
:1006F0002068016809060DD5406800060AD5A06B80
:10070000012109040843A063204600F0D9F82168BC
:100710008020086020680168C90613D54168C906B1
:1007200010D5A16A1025012902D0C168C90707D0D8
:10073000E16B02221143E16305602046FFF79AFF57
:100740002068056070BD0000F8B50026044600284A
:1007500005D0A06B25462035002802D007E00120F7
:10076000F8BD0020E0632875204600F0ABF8A06BD0
:100770001022C006002870DB2068816849076CD40D
:10078000A16B1301994302231943A163816889076F
:10079000890F012905D10168C9070FD1C168090472
:1007A0000CD4C16818239943A3681943C160206819
:1007B0000169636889008908194301612068C1687B
:1007C0003D4B1940C160207E617E8003C903084310
:1007D000A17E4B031843A36A012B02D001231B0304
:1007E00000E000231843E36818432369022B09D073
:1007F000002318432B79E57E5B0018430123012D6C
:1008000002D00AE00423F4E7002927D0A16B2025B9
:100810002943A163E16B1943E163E1690D46FF3DA3
:10082000C23D02D0256A294308432168CD680543AB
:10083000CD600125E16A2D07A94213D0012911D00D
:1008400002290FD003290DD004290BD0052909D086
:10085000062907D0072905D010E028E00121090466
:100860000843DAE721684D69ED08ED004D61216824
:100870004D69A78D7F077F0F3D434D612168C96892
:100880000E4D2940814207D10020E063A06B800813
:100890008000401CA06308E0A06B02218843104345
:1008A000A063E06B1843E06301263046F8BDA06BFF
:1008B0001043A063F8E700001902FEFFE7FF3F8343
:1008C0007047000070B586B0054614216846FFF7F2
:1008D0007BFC20492868884239D11F498A69401524
:1008E00002438A618A69024005924A690002024312
:1008F0004A6149690026014005910B2000900320C0
:100900000190092069460296C00600F0B5F9134827
:10091000134C41C48020266060604000A0608000CD
:10092000E06020202061C00160610D48083C00F0BB
:10093000B7F8002801D0FFF710FE2C630022114603
:100940000C20656200F0B8FD0C2000F0A9FD06B097
:1009500070BD000000240140001002400800024069
:100960000C010020F7B504460068002580684007A8
:100970003DD426462036307D01280AD00127377520
:10098000607E012807D02046FFF79CFC050002D0BE
:100990002EE00220FEBDA06B16490840FF21013168
:1009A0000843A0630020E0633075216B1248886221
:1009B000216B1248C862216B1148086321681C2012
:1009C0000860206841681022114341602068C168B6
:1009D0003943C1602168206B4031029B019A00F0CD
:1009E00089F82068816804221143816000E00225B3
:1009F0002846FEBDFEF1FFFF35020008BB020008DD
:100A0000A1020008F0B4C16B0D6801680C680422F3
:100A1000066C1346B3402B420DD063070BD50B6811
:100A20009B0602D40B6893430B60016C8A40C16B38
:100A30004A60C16A19E00227B74002462F400123ED
:100A40002032002F15D0A70713D50C68A40604D4B4
:100A50000C680A25AC430C605370036C022199406A
:100A6000C36B596000211170816A002916D0F0BC57
:100A700008470827B7402F4210D024070ED50C682E
:100A80000E25AC430C60046C1946A140C46B616038
:100A90008363537000211170016BE6E7F0BC70476F
:100AA00070B5040021D00221204620300546417057
:100AB000226811680E48A3680140606826691843DF
:100AC000E3683343184363691843A3691843E36930
:100AD0001843084310602046FFF70CFD0021A16376
:100AE000012068702970084670BD012070BD0000AB
:100AF0000FC0FFFFF8B504468C4620300178002572
:100B0000012909D00126067041780027012905D066
:100B1000077002252846F8BD0220F8BD0221417069
:100B2000A7632068016849084900016061462046C2
:100B3000FFF7F2FCE06A00282068016802D00E226C
:100B4000114306E00A221143016020680168042273
:100B5000914301602068016831430160DAE70000D9
:100B600070B5044600F066F90546601C02D00448E2
:100B70000078241800F05EF9401BA042FAD370BD43
:100B800014000020F8B5AF26324D334CB6000128D2
:100B90001BD00927FF06102837D0202834D1202168
:100BA000384600F03BF900284CD02021384600F0B0
:100BB00035F9012828D100F03DF92968401AB042E2
:100BC000206845D9FF2101311CE0244F012138461E
:100BD00000F024F900280ED00121384600F01EF95B
:100BE000012811D100F026F92968401AB042206886
:100BF00007D9042106E000F01DF9286001212068D2
:100C000000E0022108432060F8BD1021384600F0C2
:100C100005F900280ED01021384600F0FFF8012811
:100C2000F2D100F007F92968401AB042206807D9CC
:100C30002021E7E700F0FEF8286008212068E1E7BE
:100C40001021DFE700F0F6F8286040212068D9E79E
:100C50008021D7E70000002078030020001400481E
:100C600010B504494A69024202D04861FFF78AFF81
:100C700010BD000000040140F8B500230324012545
:100C8000BAE02E469E40B44632407CD00E79B6077C
:100C9000B60F012E01D0022E17D186682746B64620
:100CA0005E00B74000967646BE43B646CF68009ECB
:100CB000B74076463743876046686746BE430F793C
:100CC000FF06FF0F9F40374347600E79F643B60794
:100CD0000ED0C6682746B4465E00B646B7406646A4
:100CE000BE43B4468F687646B74066463743C76012
:100CF0000E79B607B60F022E14D1DE08B6003618EC
:100D00000096366A5F07B446FE0E0F27B646B74018
:100D10006646BE43B4460F697646B74066463743DB
:100D2000009E376206682746B4465E00B646B74066
:100D30006646BE430F79B446BF07BF0F7646B7403D
:100D40006646374307604E68B603B60F53D02D4F43
:100D5000BE692E43BE61BE699F08F607F60F2A4E94
:100D6000BF00BE190096B6680F27B4469E07360F1F
:100D7000B646B7406646BE430927FF06B446B842AA
:100D800002D1002710E036E0204FB84201D1012700
:100D90000AE01F4FB84201D1022705E01D4FB842BB
:100DA00001D1032700E005277646B7406646374362
:100DB000009EB760184E36684F689643FF0300D513
:100DC0001643154F3E607E684F689643BF0300D5BB
:100DD0001643114F7E60BE684F689643FF0200D5F0
:100DE00016430D4FBE60FE684F689643BF0200D5A4
:100DF0001643094AD6605B1C0A681646DE4000D0DE
:100E00003FE7F8BD00100240000001400004004828
:100E100000080048000C0048000401400069084038
:100E200000D001207047002A01D0816170478162A3
:100E300070470000014880687047000014000020DF
:100E400010B5040003D0A06F002802D007E00120F5
:100E500010BD002174200155204601F051FA2420D4
:100E6000A06720680168490849000160204602F037
:100E70004DF80128ECD0606A002802D0204601F02D
:100E8000ADFF206841680122D20291434160206891
:100E900081680822114381602068016801221143A2
:100EA0000160204602F000F810BD70B502464032E5
:100EB0005378202B1CD11378012B19D001231370E8
:100EC00024245470046825689D43256004682568BF
:100ED0001E03B5432560046825680D43256000683E
:100EE000016819430160202050700020107070BD0F
:100EF000022070BD70B5024640325378202B1BD1C2
:100F00001378012B18D00124147024235370036824
:100F10001D68A5431D6005682B680F263602B34384
:100F200009021943296000680168214301602020FB
:100F300050700020107070BD022070BD70B50400AC
:100F400006D02546403568780026002802D005E006
:100F5000012070BD2E70204600F022FA2420687017
:100F6000206801684908490001600F21606809068E
:100F700088432168086121688A680120C003824390
:100F80008A60E1680129A16808D0212292021143F8
:100F900022689160E168022902D005E00143F7E789
:100FA00001212268C902516021684A680F4B1A4327
:100FB0004A602168CA688243CA606169206908433F
:100FC000A169090208432168C860216AE0690843F1
:100FD000216808602068016801221143016066648D
:100FE000202068702663AE70002070BD0080000273
:100FF000FFB5054604464035687881B0202878D191
:101000002878012875D001202870FFF713FF0746C4
:10101000012200901923D103204601F06BFA002829
:101020003CD1212068701020A870002666640398C7
:101030006062049860856663618D2F48FF2903D93B
:10104000FF22228500903BE0618D218500903DE0EC
:101050002046029901F03AFA16E001F098FA0028C9
:101060001CD1606A216800788862606A401C6062F6
:10107000608D401E6085208D401E80B22085618D70
:10108000002901D000280CD0608D0A9900283A462A
:101090002046E2D101F055FA00281CD0012005B00D
:1010A000F0BD00970022802120460A9B01F022FA21
:1010B0000028F3D1608DFF2805D9FF2222850096F4
:1010C00001231B06C4E7608D20850096208D012337
:1010D000C2B25B06BCE721682020C86121684A686B
:1010E000064B1A404A606870AE702E700020D6E73A
:1010F000FFE70220D3E700000020008000E800FEA8
:10110000FFB5054604464035687883B0202875D180
:101110000C98002814D00D98002811D028780128A8
:101120006CD001202870FFF785FE07460122009051
:101130001923D103204601F0DDF9002874D103E022
:101140000120400260646FE0222068704020A87097
:10115000002666640C9860620D98608566630E9840
:101160000090019704A90EC9204601F04FF900280C
:1011700001D02E7058E0618D3448FF2905D9FF2237
:10118000228501231B06009006E0618D21850090D9
:10119000208D0123C2B25B062046049901F096F926
:1011A00000970022042120460E9B01F0A3F900289D
:1011B0003AD12068406A616A0870606A401C6062C7
:1011C000208D401E81B22185608D401E6085608D1E
:1011D00000281FD000291DD1009700228021204621
:1011E0000E9B01F087F900281ED1608DFF2806D9DB
:1011F000FF22228501231B06009607E024E0608D74
:1012000020850096208D0123C2B25B0620460499FA
:1012100001F05CF9608D0028C2D13A4620460E9953
:1012200001F08FF9002802D0012007B0F0BD20683E
:101230002021C16120684268054B1A4042606970F4
:10124000AE702E700020F0E70220EEE70024008050
:1012500000E800FEFFB5054604464035687883B0D7
:10126000202872D10C98002814D00D98002811D095
:101270002878012869D001202870FFF7DBFD074698
:10128000012200901923D103204601F033F90028F0
:1012900071D103E00120400260646CE0212068709D
:1012A0004020A870002666640C9860620D986085E6
:1012B00066630E980090019704A90EC9204601F0BC
:1012C000D5F8002801D02E7055E0608DFF2805D993
:1012D000FF22228501231B06009606E0608D2085F3
:1012E0000096208D0123C2B25B062046049901F0CE
:1012F000EDF83A4620460E9901F049F900283AD116
:10130000606A216800788862606A401C6062608D53
:10131000401E6085208D401E80B22085618D002991
:101320001FD000281DD100970022802120460E9B4F
:1013300001F0E0F800281ED1608DFF2806D9FF22B9
:10134000228501231B06009607E024E0608D20859E
:101350000096208D0123C2B25B062046049901F05D
:10136000B5F8608D0028C4D13A4620460E9901F0A8
:10137000E8F8002802D0012007B0F0BD2068202145
:10138000C16120684268054B1A4042606970AE70C6
:101390002E700020F0E70220EEE7000000E800FEDB
:1013A00010B586B0044614216846FEF70DFF1349B8
:1013B0002068884220D1124C616901204004014319
:1013C0006161616901400320059140020090122093
:1013D0000190002002900320039004200490092033
:1013E0006946C006FFF748FCE1690120400501435A
:1013F000E161E1690140059106B010BD0054004073
:1014000000100240024881680278891881607047A4
:101410001400002010B50648016810221143016035
:10142000032000F007F800F027F8002010BD0000AE
:101430000020024070B504460D4D7D202978C00083
:10144000FEF750FE01460B480068FEF74BFE00F029
:1014500093FC002809D1042C07D200222146401E0B
:1014600000F02AF800206C6070BD012070BD000003
:10147000140000202000002008B5084881690122DE
:1014800011438161816911400091C26901040A43DD
:10149000C261C0690840009008BD00000010024011
:1014A000002805DBC106C90E0120884001490860FB
:1014B0007047000000E100E010B501F07DFE10BDB6
:1014C000F8B505460068354CC00352D5E0690026E2
:1014D000C00007D4E16920040143E161E1690140F2
:1014E000012600912E480168C90510D401688215B3
:1014F00011430160FFF79EFC074604E0FFF79AFCEA
:10150000C01B642824D826480068C005F6D5206A88
:1015100003273F02384020D06968394081421CD0FF
:10152000206A226AB843012109040A432262226A1E
:101530008A4322622062C0070FD0FFF77BFC009035
:1015400008E0FFF777FC0099411A1648814201D95B
:101550000320F8BD206A8007F3D5206A6968B84384
:1015600008432062002E04D0E16901200007814376
:10157000E1612878C00705D0206BA9688008800049
:10158000084320632878800605D5206B1021884306
:10159000E968084320630020F8BD00000010024005
:1015A0000070004088130000F8B50F46060059D0BF
:1015B0003A4D2868C007C00FB84209D228684008D1
:1015C0004000384328602868C007C00FB84249D19E
:1015D0003068334C81070CD5400704D5606807217B
:1015E0000902084360606068F0218843B1680843DD
:1015F00060603078C00726D0706801280ED021685E
:1016000002280ED0890700292CDA61688908890030
:1016100001436160FFF70EFC00900DE02168890333
:10162000F1E78901EFE7FFF705FC0099411A1D4832
:10163000814201D90320F8BD60680C21084071681F
:1016400089008842EFD12868C007C00FB8420BD983
:10165000286840084000384328602868C007C00F49
:10166000B84201D00120F8BD3078400706D5606847
:10167000072109028843F1680843606000F028F8F8
:101680006168094A0906090F515CC84007490860AA
:101690000320FFF7CFFE0020F8BD0000002002402D
:1016A00000100240881300001054000820000020A1
:1016B0000448054900684968044A4905490F515CD6
:1016C000C84070472000002000100240205400084D
:1016D00010B514A30FCB88B06C460FC415A30FCB65
:1016E0000FC4184A51680C200B4603401648042BBF
:1016F00016D0082B14D18B021B0F6C46E45CD26A07
:1017000004AB1207120F9A5CC90305D500231946D2
:10171000FEF712FD214601E020460C4901F026FDAE
:1017200008B010BD02030405060708090A0B0C0DDA
:101730000E0F10100102030405060708090A0B0C1E
:101740000D0E0F100010024000127A0000093D003B
:10175000FEB5040070D02078DC4DC0074AD0686820
:101760000007800F012807D068680007800F022853
:1017700009D16868C00306D5286880033AD5606837
:101780000028E7D036E06168012914D001208004E8
:10179000002901D0052914D02A68012109048A43AF
:1017A0002A602968814329606068002816D0FFF705
:1017B00041FB06460EE02868012109040843286021
:1017C000F2E7296801432960F5E7FFF733FB801B47
:1017D00064286ED828688003F7D50BE0FFF72AFB52
:1017E000064604E0FFF726FB801B6428F1D8286832
:1017F0008003F7D420780126800700283CDA686847
:101800000007800F07D068680007800F022809D101
:101810006868C00306D42868800716D5E0680128E8
:101820000AD112E0E0680028286816D0304328600A
:10183000FFF700FB074605E043E1FFF7FBFAC01B9B
:101840000228C6D828688007F7D52868F821884379
:101850002169C900084328600EE040084000286064
:10186000FFF7E8FA074604E0FFF7E4FAC01B022896
:10187000AFD828688007F7D42078000722D5E06920
:101880000028686A0ED030436862FFF7D3FA074633
:1018900004E0FFF7CFFAC01B02289AD8686A8007D5
:1018A000F7D50FE0400840006862FFF7C3FA07462B
:1018B00005E09DE0FFF7BEFAC01B022889D8686AE0
:1018C0008007F7D4207804274007002860DA00203A
:1018D0000190E869C00008D4E969B8060143E961EC
:1018E000E969014001200091019079480168C9052A
:1018F00011D40168821511430160FFF79BFA009033
:1019000005E0FFF797FA0099401A642870D87048EC
:101910000068C005F5D5A06801280AD0002801D0CC
:10192000052810D0286A400840002862286AB84379
:1019300001E0286A30432862A068002812D0FFF72F
:1019400079FA00900AE0286A38432862F1E7FFF745
:1019500071FA0099411A5F48814249D8286A800784
:10196000F5D50DE0FFF766FA009006E0FFF762FAA2
:101970000099411A574881423AD8286A8007F5D41D
:101980000198002804D0E969012000078143E9613A
:101990002078C00635D5606901280CD0401D686BE1
:1019A00023D038436863686B400840006863FFF7E2
:1019B00041FA064622E0686B38436863686B30433F
:1019C0006863FFF737FA064604E0FFF733FA801B37
:1019D00002285BD8686B8007F7D5686BF8218843CD
:1019E000A169C900084368630BE0B8436863F4E782
:1019F0004CE0FFF71FFA801B022847D8686B80076E
:101A0000F7D4206A00285ED069680907890F022987
:101A100042D0012636060228286805D0B043286047
:101A2000FFF708FA044633E0B0432860FFF702FAF4
:101A3000074604E0FFF7FEF9C01B022826D82868F5
:101A40008001F7D4E86AE16A000900010843E8620E
:101A5000616AA06A084369683D2212049143084301
:101A60006860286830432860FFF7E4F9044604E022
:101A7000FFF7E0F9001B022808D828688001F7D595
:101A800021E0FFF7D7F9001B022801D90320FEBD92
:101A900028688001F5D416E00128F8D06868E96A62
:101AA00001221204636A02409A420AD10907E26ADB
:101AB000090F914205D10F2189040840A16A88428B
:101AC00001D00120FEBD0020FEBD0000001002403C
:101AD000007000408813000070B5040003D0607FE0
:101AE000002802D006E0012070BD002020772046AB
:101AF00000F04CF8022060772168CA204862216813
:101B000053204862204600F0A0FFFF25042600284D
:101B100024D1206881681C4A11408160216888684E
:101B200062686369104322691A4310438860216820
:101B3000E06808612068016922891204114301618B
:101B40002068C16880229143C16020688068800657
:101B500008D4204600F0F6F8002803D0206845623B
:101B60006677C0E72068016C01229204914301640A
:101B70002068016CA269114301642068456201205C
:101B80006077002070BD0000BFFF8FFF006805492F
:101B9000884205D10448016A0122D203114301623F
:101BA000704700000028004000100240F8B50446CD
:101BB000007F0B4601280FD001202077022060779C
:101BC000002A0BD0D8789D7800040543587809780E
:101BD00000024903084317E00220F8BD5878C10607
:101BE00003D5EF2108400A305870D87800F022FF62
:101BF0000504587800F01EFF00020543987800F0B5
:101C000019FF05431878400305432168CA2048623C
:101C1000216853204862204600F017FF0026FF2766
:101C2000002811D10F480540206845602068C16830
:101C300080229143C1602068806880060BD42046D2
:101C400000F080F8002806D0206847620420607702
:101C500026770120F8BD206847620120607726774B
:101C60000020F8BD3FFFFF00F8B50446007F0D4699
:101C7000012821D0012020770220607720680027EA
:101C80008068002A1AD0400600D4EF702878AE7819
:101C9000000406436878E978000209040843064313
:101CA0002168CA204862216853204862204600F01B
:101CB000CCFE002834D114E00220F8BD400600D448
:101CC000EF70287800F0B6FE0604687800F0B2FEE7
:101CD00000020643A87800F0ADFE0643E878000451
:101CE000DDE7174806402068066020688168012209
:101CF0009204914381602969E868084321688A68F1
:101D0000104388602068C16880229143C1602068C8
:101D1000806880060CD4204600F014F8002807D014
:101D20002168FF2048620420607727770120F8BDF2
:101D30002168FF2048620120607727770020F8BDE6
:101D40007F7F7F0070B504460068C168A022914380
:101D5000C160FFF76FF87D260546F60006E0FFF745
:101D600069F8401BB04201D9032070BD2068C068EB
:101D70008006F4D5002070BD094910B5401E884288
:101D800001D9012010BD074C60610321081F01F03B
:101D900013FA0020A06107202061002010BD000080
:101DA000FFFFFF0000E000E030B5034620331A7F5C
:101DB000012A26D001221A770325CA682D02AA43D8
:101DC0008D6800242A430125AD02AA434D680068AE
:101DD0002A430125ED02AA430D682A4301252D035C
:101DE000AA430D692A4301256D03AA434D69C969B8
:101DF0002A430125AD03AA430A4342641C7700200D
:101E000030BD022030BD0000F0B502462032137F05
:101E1000012B1BD0012616770223537705686B68C8
:101E2000AC687027BB430F681F436F600068084BA6
:101E3000984202D0074B984204D1802349689C43C2
:101E400021438160567700201077F0BD0220F0BD5D
:101E5000002C01400004004070B5040005D0254668
:101E60002035687F002802D006E0012070BD0020E8
:101E70002877204600F014F802206877211D20689A
:101E800000F04AFE01204034A071A877E877207066
:101E90006070A070E070207160716877002070BD84
:101EA000F8B505460068204A2049904207D1CA6922
:101EB00002200243CA61C96901400091F8BD1C4B70
:101EC0009A15984206D1C8691043C861C869104084
:101ED0000090F8BD174B9842FBD18B69012080041C
:101EE00003438B618969154C0140009112482060C1
:101EF00010206060234600208021083307C3C900FA
:101F00008E00E6616161A0612046FEF7C9FD0028F0
:101F100001D0FEF722FB0A480168314301606C6280
:101F20002C626562F8BD0000000400400010024011
:101F300000200040004801401C00024094020020A4
:101F400000000140F8B5054604462035287F0026EC
:101F5000012817D00120287702206877226890682E
:101F60007727FF23B8431B029843906008685028E6
:101F700038D00EDC20284FD006DC00284CD01028AA
:101F80001ED149E00220F8BD302845D0402817D1A5
:101F90003AE060282ED0702819D001221203801A4E
:101FA0000FD090420CD1CB684A688968206800F055
:101FB000FCFD20688168012292031143816000E0EA
:101FC000012601206877002028773046F8BDCB68CD
:101FD0004A688968206800F0E8FD2168886838430D
:101FE0008860EEE7CA684968206800F0D3FE502197
:101FF000206806E0CA684968206800F0DCFE6021BD
:10200000206800F0DDFDDCE7CA684968206800F060
:10201000C1FE40212068F4E7226801461046F0E73F
:1020200070B586B0044614216846FEF7CDF81F4E01
:102030002568092000231E4974130222C006B542F8
:102040000BD14D6925434D6149696D46214005918C
:1020500040210EC50121039324E0164EB54211D153
:102060004C69680104434C61496900920140059143
:10207000029303930493019269460F48FEF7FCFD17
:1020800006B070BD0D4B9D42FAD14B6923434B61A5
:10209000496901922140059180210091032103911A
:1020A0000292052104916946E8E70000000400401F
:1020B0000010024000200040000400480048014099
:1020C000F8B5064604462036307F00270D46012825
:1020D0000ED001203077002A0CD0042A1BD0082A09
:1020E0002FD00C2A3ED00127002030773846F8BD8B
:1020F0000220F8BD206800F06BFD2068816908228D
:10210000114381612068826904218A4382612068C9
:1021100081692A6912E0206800F096FD20688269D2
:102120000121C9020A438261206881690122920269
:1021300091438161206881692A691202114381619A
:10214000D2E7206800F0BAFD2068C1690822114377
:10215000C1612068C26904218A43C2612068C169E3
:102160002A6912E0206800F0E5FD2068C1690122BB
:10217000D2021143C1612068C269012189028A43E8
:10218000C2612068C1692A6912021143C161ABE7CB
:1021900070B5040005D025462035687F002802D0A0
:1021A00006E0012070BD00202877204600F014F8DA
:1021B00002206877211D206800F0AEFC0120403429
:1021C000A071A877E87720706070A070E07020712F
:1021D00060716877002070BD7047000010B504463C
:1021E0000222203000290AD004290DD02046403098
:1021F00008290ED04378012B10D0012010BD837F19
:10220000012BFAD182770AE0C37F012BF5D1C27787
:1022100005E00378012BF0D1027000E0427001224A
:10222000206800F0B5FC10492068884205D00F4AAC
:10223000904202D00E4A904204D1426C0123DB034B
:102240001A43426420680122884202D00949884228
:1022500004D181684907490F062902D0016811435A
:102260000160002010BD0000002C0140004401402E
:10227000004801400004004070B504460D46006867
:10228000002200F085FC1B4A194B206891109842EF
:1022900005D0194B984202D0184B98420AD1036AD4
:1022A000134207D1036A0B4204D1436C0126F603A3
:1022B000B34343642068036A134206D1026A0A42A8
:1022C00003D10168490849000160204620300121FE
:1022D000002D07D0042D07D04034082D06D06170A2
:1022E000002070BD8177FBE7C177F9E72170F7E740
:1022F000002C014011110000004401400048014041
:1023000010B586B0044614216846FDF75DFF1249FA
:10231000206888421DD111488269012189030A433E
:10232000826182690A4005924269C9000A4342619A
:10233000406908400590042000901220019001217E
:10234000032003900291049109206946C006FEF71C
:1023500093FC06B010BD00000038014000100240A0
:10236000FEE701688A69D243920701D400228A629B
:1023700000688169C943C90703D0816901221143FB
:1023800081617047F7B5044600680F468169C9430B
:10239000C90636D44168890104D4416801229203F8
:1023A0001143416000262546403520688069C043BE
:1023B000800612D5781CF8D0FEF73CFD0299401A31
:1023C000B84201D8002FF0D1616C20200143616434
:1023D0006870AE702E700120FEBD21681020C861AB
:1023E00020682027C7612046FFF7BBFF20684168AF
:1023F000054A11404160606C0421084360646F70BD
:10240000E7E70020FEBD000000E800FEF8B5044646
:10241000164615481D46DAB20090079F0023204655
:1024200000F054F83A462046069900F0B0F800282B
:1024300018D12846F5B2012809D02168300A8862EF
:102440003A462046069900F0A2F800280AD12068F2
:1024500085620097002240212046069B00F04AF842
:10246000002800D00120F8BD00200080F8B5044607
:10247000164615481D46DAB2C3020090079F204653
:1024800000F024F83A462046069900F080F800282B
:1024900018D12846F5B2012809D02168300A88628F
:1024A0003A462046069900F072F800280AD12068C2
:1024B00085620097002280212046069B00F01AF8D2
:1024C000002800D00120F8BD00200080F0B506688B
:1024D000059C7568064F600D384385438805800D5F
:1024E000110408431843204305437560F0BD000004
:1024F000FF63FF03F8B51D4617460E46044609E084
:10250000681C07D0FEF796FC0699401AA8420BD823
:10251000002D09D020688169304688430FD0002003
:10252000B842EDD00020F8BD616C20200143616409
:10253000403460700020A07020700120F8BD0120A0
:10254000EEE770B516460D4604460FE032462946C2
:102550002046FFF717FF002801D0012070BDFEF7CD
:1025600069FC801BA84208D8002D06D0206880692D
:10257000C0438006EAD4002070BD616C2020014376
:102580006164403460700020A0702070E5E770B591
:1025900016460D46044611E0324629462046FFF70E
:1025A000F1FE002801D0012070BD681C06D0FEF7A6
:1025B00041FC801BA84208D8002D06D02068806905
:1025C000C0438007E8D4002070BD616C2020014327
:1025D0006164403460700020A0702070E3E7000068
:1025E0003EB500242549264800940194029412C067
:1025F00004600125856004214460C1600474447452
:102600008574C474FF21C23184614161014618316F
:102610000D7104620838FEF797F8002801D0FDF725
:102620009CFF01200003019007200290009469465E
:102630001348FDF795FF002801D0FDF78EFF69468E
:102640000F480095FDF78CFF002801D0FDF785FFAE
:102650000320009069460A48FDF782FF002801D058
:10266000FDF77BFF1020009069460548FDF778FFD5
:10267000002801D0FDF771FF3EBD0000002401409D
:10268000CC00002008B50C4841690122114341618A
:10269000406910400022009011460920FEF70CFF0F
:1026A0000920FEF7FDFE002211460A20FEF704FF76
:1026B0000A20FEF7F5FE08BD0010024070B586B096
:1026C00014216846FDF780FD2548426901218905EE
:1026D0000A43426142690A400592426949110A432C
:1026E000426142690A400592426949000A434261D7
:1026F00040691C4E08400590002202213046FEF73A
:1027000092FB012531242404009569463046029548
:102710000194FEF7B1FA002102200291039100908A
:10272000019569463046FEF7A7FA30206A4631C265
:1027300009206946C006FEF79FFA002211460520CF
:10274000FEF7BAFE0520FEF7ABFE00221146072079
:10275000FEF7B2FE0720FEF7A3FE06B070BD000034
:10276000001002400014004810B51449144801221A
:1027700006C0002101608160C16001614161426069
:1027800081610838FEF7DAFB002801D0FDF7E5FE8D
:1027900000210B48FEF789FB002801D0FDF7DDFE84
:1027A00000210748FEF7A6FB002801D0FDF7D5FE63
:1027B0000448016802011143016010BD005400404B
:1027C000500100200000014010B586B01421684679
:1027D000FDF7FAFC002419491948059412C07F211D
:1027E00001608460C460FF21046141600838FFF724
:1027F00073F9002801D0FDF7B0FE684604704470FC
:1028000084700394012269460D480494FFF72CFA62
:10281000002801D0FDF7A1FE012069460875487522
:102820008875CC75024605A90548FFF7BFF9002851
:1028300001D0FDF792FE06B010BD00000028004058
:102840009C01002010B588B01C216846FDF7BCFC37
:102850001748164901604B210024890184604160BA
:10286000046114218461C160FFF7F6FA002801D0E9
:10287000FDF773FE0E48FFF78BFC002801D0FDF733
:102880006CFE6020009001200190029400226946B5
:1028900004940748FFF714FC002801D0FDF75DFE03
:1028A0000348FFF7BDFB08B010BD0000002000404A
:1028B0000402002010B590B01C2108A8FDF784FC8C
:1028C00020216846FDF780FC20492148002412C0E1
:1028D000046084603C21C46041608021016108384B
:1028E000FFF7BAFA002801D0FDF737FE1848FFF7C6
:1028F0004FFC002801D0FDF730FE60200890042036
:1029000009940C900A940B940D94002208A90E943B
:102910000F48FFF7D5FB002801D0FDF71EFE012070
:102920000094400302940590019403940494694632
:1029300007940748FFF738FA002801D0FDF70DFE8D
:102940000348FFF76DFB10B010BD000000480140C8
:102950004C02002010B58EB000240794089409940E
:102960000A940B941C2168460C94FDF72DFC214819
:102970001F49016014218460416004616421846105
:10298000C160FFF769FA002801D0FDF7E6FD0120DC
:102990000003079007A91748FFF7D4FA002801D0D1
:1029A000FDF7DBFD1348FFF7F3FB002801D0FDF72F
:1029B000D4FD0B940BA90F480C94FFF725FA0028BF
:1029C00001D0FDF7CAFD602000900A20019002941A
:1029D0000022694604940748FFF772FB002801D0E3
:1029E000FDF7BBFD0348FFF71BFB0EB010BD000059
:1029F00000040040BC01002010B50C480A490160E9
:102A0000E1214902416000218160C1600161816171
:102A1000C1610C22016242614162FEF711FA002895
:102A200001D0FDF79AFD10BD00380140D80200200A
:102A3000FEE77047002102E00A38C0B2491C0A28AC
:102A4000FAD20907090E0843704770B504460068BA
:102A5000C168490613D40021C943C160FEF7EAF9F1
:102A60007D260546F60006E0FEF7E4F9401BB0427D
:102A700001D9032070BD2068C0684006F4D500204D
:102A800070BD704710B5FEF7BDFC10BD30B595B0F8
:102A900030216846FDF798FB00240F941A2000901F
:102AA00001200D940C941294119403901021059020
:102AB00007900E94052010941394C00404910225ED
:102AC00006910A90089509940B946846FEF740FE1B
:102AD000002801D072B6FEE707200C900E94012169
:102AE0000D950F940CA8FEF75FFD002801D072B67B
:102AF000FEE707481090C01111901294139410A88B
:102B0000FEF7DEFC002801D072B6FEE715B030BD3E
:102B1000210001007047000070B50268174B184E85
:102B2000984201D0B04203D17024A2434C682243A2
:102B3000144C154D984208D0B04206D0134EB04206
:102B400003D0A04201D0A84204D103263602B243EA
:102B5000CE6832438026B2434E69324302608A68AF
:102B6000C2620A688262984203D0A04201D0A842A1
:102B700001D1096901630121416170BD002C01404F
:102B80000004004000440140004801400020004093
:102B900010B5CB06DB0E0121046A99408C43046218
:102BA000016A9A401143016210BD30B58468FF2567
:102BB0002D021B021343AC430B432343836030BD00
:102BC000826870239A430A4307210A438260704750
:102BD000F0B5026A520852000262056A43688269CF
:102BE0007024A24392080C68920014430222954379
:102BF0008A68134E2A43114DA84204D0B04202D035
:102C0000104FB84206D10827BA43CF6817430422B1
:102C100097433A46A84204D0B04202D0094DA84298
:102C200006D103252D02AB434D691D438B692B4310
:102C300043608461496841630262F0BD002C014039
:102C4000004401400048014070B5026A10239A43D5
:102C50000262046A4368826973252D02AA430D68E3
:102C60002D021543202294438A6812012243104CFE
:102C7000A04208D11446CA688026B44312012243F8
:102C80004024A24305E00B4CA04202D00A4CA042D3
:102C900008D10324A402A3434C69A4001C438B69FC
:102CA0009B0023434360856149688163026270BD74
:102CB000002C0140004401400048014070B5026A08
:102CC000FF2301339A430262046A4368C269702594
:102CD000AA4392080D6892001543012252029443C0
:102CE0008A6812022243104CA04207D1C414A243A6
:102CF000CC68240222430615B24305E00B4CA042E7
:102D000002D00B4CA04208D103242403A3434C69F6
:102D100024011C438B691B0123434360C56149683F
:102D2000C163026270BD0000002C014000440140FC
:102D30000048014030B5026A01231B039A43026236
:102D4000056A4268C36973242402A3430C68240201
:102D50001C4301235B039D438B681B032B430A4DDC
:102D6000A84205D0094DA84202D0094DA84205D17C
:102D70000125AD03AA434D69AD012A434260C461F8
:102D800049680164036230BD002C014000440140E9
:102D90000048014030B5036A046A640864000462B4
:102DA0008469F025AC43120122430A24A3430B4358
:102DB0008261036230BD30B5036A1024A34303620D
:102DC0008469036A0F252D031203AC432243A02418
:102DD000A343090119438261016230BD10B5818CA2
:102DE000C90707D001684A6801235B049A43836AD4
:102DF0001A434A60818C890707D501684A68012314
:102E00001B049A43C36A1A434A60818C490707D559
:102E100001684A6801239B049A43036B1A434A6082
:102E2000818C090707D501684A680123DB039A43AF
:102E3000436B1A434A60818CC90607D502689168C2
:102E400001231B039943836B19439160818C89068D
:102E500007D501688A6801235B039A43C36B1A4351
:102E60008A60818C490612D503685A6801210905D8
:102E7000046C8A4322435A60026C8A4207D102687A
:102E8000516803235B059943436C19435160818C5E
:102E9000090607D501684A680123DB04806C9A4360
:102EA00002434A6010BD0000F8B504460026803099
:102EB0000660FDF7BFFF054620680068124F000757
:102EC00009D501212B46002249052046009700F034
:102ED000ABF800280DD12068006840070BD5012110
:102EE0002B46002289052046009700F09DF8002817
:102EF00001D00320F8BD2020A067E067266660347B
:102F000026750020F8BD0000FFFFFF0170B50446E4
:102F100080682169E269084361690025114308431B
:102F200021680A683C4B1A4002430A6021684868DD
:102F3000032212039043E26810434860A169206AAB
:102F4000084321688A680B231B029A4302438A6064
:102F50003248006B8007800F16D0012818D0022855
:102F600018D0032812D010210120E369C0032C4A95
:102F70002C4E83422BD100290ED002290FD00429D8
:102F80000FD008293FD110E00021EDE70221EBE747
:102F90000421E9E70821E7E7FEF78AFB03E0104692
:102FA00003E0FEF795FB002831D0616840004A0835
:102FB0008018FDF797F880B201461039B14222D847
:102FC0001849491C01400007400F08431DE0002933
:102FD00006D0022907D0042907D0082913D108E018
:102FE000FEF766FB03E0104603E0FEF771FB0028E6
:102FF0000DD061684A081018FDF774F880B20146D8
:103000001039B14201D9012501E02168C8600020D2
:103010006066A066284670BDF369FFFF001002409D
:1030200000127A00EFFF0000FFB581B00546174699
:10303000044660350A9E55E0701C53D0FDF7FAFE39
:103040000499401AB04230D8002E2ED02068016872
:10305000490747D5C069C043000543D40120216812
:10306000C0020862EFF31080012181F3108821680B
:103070000B68FF22A13293430B6080F31088EFF3BB
:103080001080012181F3108821688A68520852005B
:103090008A6080F310882020A067E0678034206079
:1030A00000202875032005B0F0BDEFF3108001214A
:1030B00081F3108821680B68FF22A13293430B60D3
:1030C00080F31088EFF31080012181F310882168CC
:1030D0008A68520852008A6080F310882020A06716
:1030E000E067DDE72068C1690298884304D00020CA
:1030F000B842A1D00020D6E70120F9E770B50068FA
:103100000D49884216D100200C4D0D4E0446002179
:103110008A0012195200AA5A491C1018C9B214295F
:10312000F6D31421FCF7DEFF6100641CE4B2705298
:10313000042CECD370BD0000002401402C000020C2
:10314000040000200FB410B504A9074B02AA03988D
:1031500000F064F8044602A9002000F007FA2046B7
:1031600010BC08BC04B018476D350008F8B5040C55
:103170008BB2264682B25E430D0C1046370C584384
:10318000360480190021794116466E43370C360407
:103190008019794126466E438919F8BD30B47446CA
:1031A000641E2578641CAB4200D21D46635D5B0043
:1031B000E31830BC184700008307FF22DB0E9A405B
:1031C0008907090E9940002808DB830809489B00FD
:1031D0001B18186890430843186070470007000FD9
:1031E0000838830804489B001B18D869904308439B
:1031F000D861704700E400E000ED00E002E008C89C
:10320000121F08C1002AFAD170477047002001E060
:1032100001C1121F002AFBD170470000FFB58FB01B
:103220000546002606E025280AD0129A11999047F3
:103230006D1C761C28780028F5D1304613B0F0BDFF
:10324000002402940121B54A009400E004436D1C5F
:103250002B780846203B98401042F7D128782A283E
:103260000ED00222287801463039092916D8029951
:103270000A2359433039401814436D1C0290F1E77A
:10328000109802C802911090002904DA012040032E
:10329000044348420290022004436D1C28782E28E3
:1032A00017D10420044368786D1C2A280CD110988B
:1032B0006D1C02C8009110900BE000990A22514346
:1032C000303940186D1C00902878014630390929A2
:1032D000F3D928786C2810D006DC4C281AD068283E
:1032E0000ED06A2817D104E0742813D07A2812D19E
:1032F00010E00120400504430CE00121090501E034
:10330000032109050C436978814203D1012000059E
:1033100024186D1C6D1C2878692874D006DC0028E0
:103320008BD0632827D0642806D16CE06E2808D0A3
:1033300073282CD0752878D0129A11999047761C52
:103340005FE06002400F022809D003280DD0042856
:10335000109801680DD00E60001D109051E010987B
:10336000F21701680E604A60F6E7109801680E8057
:10337000F2E70E70F0E710986A4601781173001DAD
:1033800010900020507303A80190012005E01098D0
:1033900002C8019110900020C04361070CD500279E
:1033A00000E07F1C00998F420FDA8742F9DB019918
:1033B000C95D0029F5D108E0002700E07F1C8742A5
:1033C000FCDB0199C95D0029F8D102982146C01B98
:1033D0000290129B119A00F0B3F88019C61907E009
:1033E000019801990078491C0191129A119990470E
:1033F0007F1EF5D22146129B119A029800F090F898
:1034000086196D1C16E70A200190109901C91091C8
:103410006102490F032900D100B2042900D140B252
:10342000002803DA40422D2103E00DE0210504D5F8
:103430002B216A461173012103E0E10711D02021FD
:10344000F7E70CAF0C9114E00A200190109901C924
:1034500010916102490F032900D180B2042900D1E3
:10346000C0B20021EDE70199FCF73CFE30317F1E30
:1034700039700028F7D104A8C01B203001906007E4
:1034800004D5012000048443009801E0012000904D
:103490000199884201DD401A00E0002041180090A7
:1034A0000C9809180298401A0290E00306D42146AD
:1034B000129B119A029800F043F8861900200D9093
:1034C00008E003A9085C129A119990470D98401CD6
:1034D000761C0D900C998842F3DBE0030CD5214655
:1034E000129B119A029800F02BF8861904E0129AA8
:1034F000302011999047761C0099481E00900029B1
:10350000F5DC05E03878129A7F1C11999047761CFB
:103510000199481E01900029F4DC6BE7092801009D
:10352000F8B5044600251E461746880404D405E075
:1035300039462020B0476D1C641EF9D52846F8BDD9
:10354000FFB50446002581B01E46C80301D53027CB
:1035500000E02027880404D505E038460399B047E9
:103560006D1C641EF9D5284605B0F0BD0A68531CD1
:103570000B6010707047000070B50446154800F0ED
:10358000B1FA1549204600F09AFE14A317A61AA511
:103590001EA410220F210F4800F070FD3346202298
:1035A0001E210C4800F06AFD2B46302200210948FC
:1035B00000F064FD234640222321064800F05EFD12
:1035C000044800F060FE034801F007FC5028FAD1DF
:1035D00070BD0000040400202855000852544B32EE
:1035E0003020486561744265640000004C69616F79
:1035F0005A68654C696E00006769746875623A6C58
:103600006F6E646F6E6C6F76650000003230323220
:103610002D312D3134000000C000401EFDD2704716
:1036200038B5044600F05EFA0A49204600F047FE2D
:103630003C20022200907C231146204600F0BDFA77
:1036400005A32D220C21204600F018FD204600F095
:103650001AFE38BD6B5A000852544B32300000003D
:1036600010B5084909780A0602D500F0D1F910BD55
:10367000CA0702D000F052F810BD8907FCD500F04F
:10368000BBF910BD0C000020FDF7C4FEFFF7FEF9EA
:10369000FFF714F8FEF7A4FFFFF766F8FFF75AF9F3
:1036A000FFF7D0F8FEF7EEFFFFF7A6F9FFF702F9F4
:1036B000FFF78AF8012202211448FDF7B4FB3220FB
:1036C000FDF74EFAFCF7DEFE7D20114CC000A06233
:1036D00000211048FEF782FD6420FDF741FA192011
:1036E0004001A0626420FDF73BFA4B20C000A062BD
:1036F0006420FDF735FA00210648FEF7BDFDFCF712
:103700007FFE0548FFF7ACFFFBE700000014004810
:10371000002000400402002004040020F0B5074609
:1037200085B00020029003900490384600F0DAF94A
:103730003C49384600F0C3FD3B4C3CA1227D02A829
:10374000FFF700FD02AB1B222421384600F096FC57
:1037500037A33D222421384600F090FC0A261E257E
:1037600000225F23114633480196009500F0CDFBFF
:103770005F23222200212F480196009500F0C5FB0F
:103780002D49384600F09BFD00212A4800F0A8FD95
:103790002AA314220321274800F078FC29A337220A
:1037A0000321244800F072FC032135200191009090
:1037B0000A23002262211F4800F0A7FB02213120CA
:1037C0000A4601910090062364211A4800F02BFB61
:1037D0001E49384600F073FD1DA341226221384680
:1037E00000F04CFC134800F04EFD1A4801684A07EF
:1037F00016D4CA08920707D5227D637C9A4200D26C
:10380000521C2275382209E08A09920708D5227DC8
:10381000002A00D0521E2275FF22C132914301605E
:1038200005B0F0BD6B5A00085C030020253364002E
:10383000323035000404002028540008E8AEBEE50C
:10384000AE9A0000E5BD93E5898D0000285500087B
:10385000500000007803002070B5064605A507A4B7
:103860000A4900F02CFD234601222946304600F08B
:10387000B0FD70BD4D6F6465000000005265666C60
:103880006F770A4D616E75616C0000002855000865
:10389000F0B5044685B03E4800F024F93DA30E2261
:1038A0004321204600F0F2FB3BA31E224321204689
:1038B00000F0ECFB39A32E224321204600F0E6FB6A
:1038C00037A33E224321204600F0E0FB304800F0C1
:1038D000DAFC00251026334C2027019502952C4850
:1038E000039500F0FFF87F2310220021284800965E
:1038F00000F02CFA7F23202200212548009700F0B9
:1039000025FA3020024600907F230021204800F055
:103910001DFA3F2040230090002219461C4800F069
:1039200015FA228820A101A8FFF70CFC01AB0E229A
:103930000021174800F0A2FB62881DA101A8FFF733
:1039400001FC01AB1E220021114800F097FBA28868
:1039500019A101A8FFF7F6FB01AB2E2200210C48AC
:1039600000F08CFBE28816A101A8FFF7EBFB01AB8E
:103970003E220021064800F081FB054800F083FC50
:10398000034801F02AFA5028A7D105B0F0BD000085
:103990000404002054423A0056493A0049493A008A
:1039A000544D3A000400002041313A2025640000C3
:1039B00041323A202564000041333A20256400005A
:1039C00041343A202564000070B5064605A5084C30
:1039D000084900F074FC234601222946304600F0D5
:1039E000F8FC70BD5065726970686572616C0000AA
:1039F000585D00082855000810B5044600F072F81C
:103A00000249204600F05BFC10BD0000285500086C
:103A100070B5044614A618A5244900F050FC2B46A6
:103A200001223146204600F0D4FC0300FFF7B6FB2C
:103A300007080508090D111508002046FFF70CFFBF
:103A400070BD2046FFF724FF70BD2046FFF7BCFF86
:103A500070BD2046FFF790FD70BD154801784906FE
:103A6000490E017070BD000052544B323020536536
:103A70007474696E670000004D6F64650A43616C81
:103A80006962726174696F6E0A4D6F6E69746F72EC
:103A90000A5065726970686572616C0A41626F757F
:103AA000740A3E457869743C0000000028550008FF
:103AB0000C00002010B50446074B084A084900F0E6
:103AC00047FC204601F0FFF90021204601F00BFAE7
:103AD000204600F007F810BDD5520008894F0008B5
:103AE000385C000810B501680A7C3821095C406B1D
:103AF0005143C900FCF768FB10BDFFB581B00A9CBB
:103B00001E46101980B2009002981546801983B2A3
:103B10000299019800F084FB00280ED00027002CA9
:103B20000BD033462A4600970299019800F0BFF85F
:103B30006D1C641EADB2A4B2F1E705B0F0BDFFB5D7
:103B40001C46101981B0401C80B20A9F00900819D1
:103B5000401C83B21546101B82B20E46081B81B270
:103B6000019800F05DFB002806D023462A46314626
:103B70000097019800F018FD05B0F0BDFFB51C4698
:103B8000101981B0401C80B20A9F00900819401C97
:103B900083B21546101B82B20E46081B81B20198F3
:103BA00000F03EFB002806D023462A463146009707
:103BB000019800F07CFD05B0F0BDFFB581B00A9E14
:103BC0001546901980B2009004980F460C18A3B2C5
:103BD000019800F025FB00282AD0002000902A46FA
:103BE0003946049B019800F062F8022E20D3B61EDD
:103BF0006D1CB6B2ADB2002E12D00120009033463B
:103C00002A463946019800F052F80120641E0090BF
:103C1000A1B233462A46019800F049F8A81985B2A6
:103C2000002000902A463946049B019800F03FF896
:103C300005B0F0BDF8B504466030007C1F4615465F
:103C40000E46002806D0012809D002280CD00328EF
:103C500015D10FE0E16D20468847401908E0E16D7D
:103C600020468847301A09E0E16D20468847281A27
:103C700085B204E0E16D20468847801986B222466D
:103C8000284640329684D08439460025204600F0EC
:103C9000EEFE010003D0204600F018FE85B2284653
:103CA000F8BD38B50024009400F001F838BD7FB5A8
:103CB0000546803082B0007B0A99002836D06846DD
:103CC000808A002832D0012811D9022902D0032984
:103CD00007D00CE06A469289101A6A46401C90810F
:103CE00005E06A46128A101A6A46401C1082CE0706
:103CF0002C46F60F4034002E1AD068462189808960
:103D0000814213D86189814210D9E389A28905A92A
:103D100004A800F02BFC002808D00096286B8468CB
:103D20006846838A028A81892846A04706B070BD0A
:103D30006846A189008A8142F8D8E1898142F5D993
:103D40006389228905A903A8E3E70000FFB51C46A3
:103D500085B000230E980293A14201D90B1B00E00D
:103D6000631A9DB2824201D9131A00E0831A9BB2F2
:103D7000AB420AD9012602962E461D4633460E4610
:103D800011463246264604463046A14205D90E4623
:103D9000214634461646024630466E08904201D906
:103DA000012001E00020C0430190134800928442AA
:103DB00001D1641EA4B2D8B20F46039015E0029858
:103DC000002816D000993A46059800F017F8039895
:103DD000301A06B2002E06DA00990198081880B24F
:103DE0000090701906B27F1CBFB2A742E7D909B094
:103DF000F0BD3946009AE7E7FFFF000038B50446FA
:103E00004034A38993420DD8E38993420AD9238988
:103E10008B4207D863898B4204D900230093012386
:103E2000FFF745FF38BDFFB587B0109909981F46C9
:103E30004618B0B200900898119CC5190146ABB263
:103E4000099A079800F0ECF900285CD008982346FE
:103E5000001981B209980191001981B2281B401EF6
:103E600085B2301B401E80B20290022003910A46A8
:103E7000009001990798FFF781FE012000902346EA
:103E80002946039A0798FFF779FE042000902346FD
:103E9000029A01990798FFF771FE082000902346C7
:103EA0002946029A0798FFF769FE0199381B491CB9
:103EB00089B201910399001B491C80B289B2039118
:103EC000032811D3801E86B2601C85B2334600954C
:103ED000099A01990798FFF710FE33460095029A58
:103EE00001990798FFF709FE1098001B001B80B28C
:103EF000032808D3801E80B200903B46039A08999D
:103F00000798FFF7FAFD0BB0F0BDFFB585B00E9E28
:103F10000F9D9019039080B2009006981C460019DE
:103F200083B2049017460699059800F079F90028A5
:103F300064D006982B46401981B27819029181B25B
:103F400004980191401B401E80B2049003980A46D9
:103F5000401B401E80B203900220009002990598F9
:103F6000FFF7EDFD012000902B46019A049905987A
:103F7000FFF7E5FD042000902B46039A029905986F
:103F8000FFF7DDFD082000902B46039A0499059861
:103F9000FFF7D5FD601B711B401B491B8DB20299B9
:103FA00080B2491C89B202910199491C89B20191E0
:103FB000032810D3801E80B2034603903A46761E33
:103FC00002990598FFF76DFEB81982B2039B02991A
:103FD0000598FFF766FE032D10D3AD1EADB22B463C
:103FE000641E019A0699059800F0E4F806982B469D
:103FF000001981B2019A059800F0DCF809B0F0BD13
:10400000FFB585B016460F46044600252FE0B87868
:104010000E214019C3B208980F2284460020019057
:1040200000902046803041568256881A401C80B24B
:104030000390F878984202D10120019000906146E7
:10404000184600F02DFF002800D10BA00099009029
:1040500002914420005B3246801E83B2012120463B
:1040600000F01CF8039880196D1C86B2EDB2387808
:10407000A842CCD809B0F0BD0000000010B5024C39
:10408000446000F0C1FB10BD494F000810B5024C60
:10409000446000F0B9FB10BD85530008FFB587B040
:1040A0001C4615460021119E079800F016F9079846
:1040B000C16D8847401980B209901099079800F0A7
:1040C000A7F800210191A04204D2201A0004400C5C
:1040D000019000E0044607980E2180304156099A6D
:1040E000089D521A92B203920F2282562746881ACE
:1040F00084B20121079800F0DBF8129800281AD04A
:104100003B4600942946039A0798FFF7F6FC12E015
:1041100003986D1E401E80B2BF1CA41CADB2BFB27E
:10412000A4B2024603903B46294600940798FFF745
:1041300044FD761EF6B2002EEAD11298002801D076
:10414000002100E00121079800F0B2F801990898D9
:10415000109B401881B2099A0798FFF797FF012139
:10416000079800F0A5F80BB0F0BDFFB583B0174677
:1041700000250D9800F086FE0646002415E0204636
:104180000D9900F08DFE00210191029100903A46B8
:10419000069B04990398FFF781FF0C98381887B2A3
:1041A0000C982818641C85B2E4B2B442E7D32846C0
:1041B00007B0F0BD38B501240094FFF778FD38BD95
:1041C00010B504468030C07C002802D02046FFF79E
:1041D00089FC0021204600F05EF810BD70B5044651
:1041E00000F045FC011E12D0204600F07CFC204669
:1041F00060300546817E00F045FB80342074E97E06
:10420000284600F03FFB297F284600F03BFB70BDAD
:1042100010B5024A426000F031FD10BD8553000820
:1042200070B5044640341E460D46E189A089049BC2
:1042300000F074FC002805D06189208933462A46A5
:1042400000F06CFC70BD70B5044600F0F4FC214633
:104250002031487E097E0818C5B22068407CA842FB
:1042600004D8204600F037FE002070BD9320005D8A
:10427000002802D02046FFF735FC2946204600F0F2
:104280000AF8012070BD10B5044600F0D4FC2046A9
:1042900000F021FE10BD10B5044620304176206BA1
:1042A000016820468847206B41682046884710BD3A
:1042B00080308174032901D301218174704710B5C6
:1042C0000446806D884207D020467430A16500F016
:1042D0007DFC204600F058F810BD60300174704736
:1042E00060304173704700000149C16570470000AC
:1042F000814800080022014640310A828A82034A2E
:104300004A82CA82016B496808470000FFFF00002B
:10431000F8B50025069F04468565C36241632030D9
:1043200002764576264660362046803075734574A1
:1043300001218174C174276339682046884720466B
:10434000FFF7D8FF2046FFF7CFFF3574F8BD000018
:104350007CB500930C4613460546084A084900F010
:10436000CAFD01A800F02CFC0146684600940279C1
:10437000044B2846FFF7CCFF7CBD0000B15000087D
:10438000D1510008354B000810B5816D002917D0B8
:104390000146803101228A568A730223CB56CB73A1
:1043A0004C7B002C0CD0012C0BD07E240457002019
:1043B00008562418944200DD8C73834200DDC873D4
:1043C00010BD03200856824200DA88730420085684
:1043D000F3E7FFB58BB00B9D0E2080350F212856DB
:1043E00069561746401A401C80B202900C9800F0A3
:1043F00049FD0646002F01D07F1EFFB20B9C02999B
:104400004034E088002E04D0C01EFBF781FE801BE4
:1044100001E0FBF767FE694608730E9800F032FD75
:104420006946002248738A73CF73874201D3401EC6
:10443000C873087BC97B884203D8081A6946401CA8
:1044400088730B98FFF750FF0B98FFF7B9FE0E200B
:104450002856002E87B218D00C990298019100902E
:10446000A3883A4600210B98FFF77FFEC7190298F0
:104470000F216956381A401A401C82B2A3880021C5
:104480000B98FFF70EFCFF1CBFB23A4603A90E9B28
:104490000B98FFF7B5FD0B98FFF7D5FE0028D6D196
:1044A0000B9800F09AFC50280DD0532811D05128B9
:1044B00011D055280FD0522801D05428F0D103A88C
:1044C00000F069FCC0E76846C07B401CC0B20FB07A
:1044D000F0BD0020FBE703A800F048FCB4E7002B88
:1044E00005D0012B05D0022B06D0801802E0401821
:1044F00000E0801A80B27047401AFBE7002B05D01D
:10450000012B05D0022B06D0401A02E0801800E0F3
:10451000401880B27047801AFBE738B5044605465C
:104520004034E08A0090638AA28A218A2846FFF7F5
:1045300077FE8035002816D0012028732189208A33
:10454000814200D220816189608A814200D96081E4
:10455000A189A08A814200D2A081E189E08A8142BA
:1045600000D9E08138BD0020287338BD30B50488FB
:104570000D882D19ADB2AC4205D99C4202D25D1E08
:10458000ADB200E014469C4201D2954201D8002011
:1045900030BD944200D214469D4200D91D4604808D
:1045A000281B0880012030BDFFB50120C01A06B2CB
:1045B0005842400083B0012700B200251C460290FB
:1045C0000FE0002E07DB0298641E801C00B20290F0
:1045D0003018A4B206B26D1CBF1C3FB2F019ADB2C8
:1045E00006B20C9905980191009022462946049B39
:1045F000039800F004F8A542E3D307B0F0BDFFB57F
:1046000089B012981546401B0E46079098190390E2
:104610001298139F801B06905819F9071C460290A8
:1046200000290DD0079882B2039881B20998FFF74C
:10463000E5FB069882B2029881B20998FFF7DEFB8B
:10464000A01B0590601BB907049000290DDA07989C
:1046500082B2059881B20998FFF7D0FB069882B222
:10466000049881B20998FFF7C9FB129839074419D9
:10467000851900290BDA0398A2B281B20998FFF7D5
:10468000BDFB0298AAB281B20998FFF7B7FB780781
:104690000BD50598A2B281B20998FFF7AFFB049839
:1046A000AAB281B20998FFF7A9FB0DB0F0BDFFB522
:1046B0000120C01A06B25842400083B0012700B260
:1046C00000251C4602900FE0002E07DB0298641EB6
:1046D000801C00B202903018A4B206B26D1CBF1C40
:1046E0003FB2F019ADB206B20C9905980191009055
:1046F00022462946049B039800F004F8A542E3D320
:1047000007B0F0BDFFB585B00F460E991646891B60
:10471000039108990F98C91902910E99C007C91BF6
:1047200001910899551C89197C1C009100280FD013
:104730000398ABB282B2029881B20598FFF73AFDB6
:104740000198A3B282B2009881B20598FFF732FDBA
:1047500008990F98CF1B80078E1B00280DDA03984D
:10476000ABB282B2B9B20598FFF724FD0198A3B2AB
:1047700082B2B1B20598FFF71DFD0F9800070DD565
:104780000298ABB281B20E9A0598FFF713FD00981C
:10479000A3B281B20E9A0598FFF70CFD0F9840075F
:1047A0000BD5ABB2B9B20E9A0598FFF703FDA3B2D1
:1047B000B1B20E9A0598FFF7FDFC09B0F0BD38B50F
:1047C000C58F049C0094521BC46A92B2A04738BDA6
:1047D000F8B504464034E688A488B21A611A069DEA
:1047E00092B289B2002D02D0012D05D008E0521EF0
:1047F000C91A92B289B203E0491ED21A89B292B2A2
:104800000095FFF7DCFFF8BDFFB581B01C460646FA
:1048100000F0B4FD194F00257268217830469047AA
:104820000346B84226D01548641C401E8342F3D08C
:104830003046039A0299FFF7FDF97021895D00293E
:1048400006D0012907D0022908D003290FD10AE098
:104850000299091804E00399091806E00299091A57
:1048600089B2029103E00399091A89B203912818C9
:1048700085B2D1E7284605B0F0BD0000FFFF00007B
:104880000020704710B50C4600F006F80122641EA7
:10489000A240801A40B210BD70B50568047B2A782A
:1048A000E2406318DBB2082B09D30826341B6D1CC9
:1048B00005602D78A5401543083BEAB2DBB2012420
:1048C0008C40641E14400373204670BDF3B583B062
:1048D000039C2046603400F006F90B256557A17E45
:1048E0002046FFF7CFFF0746E17E2046FFF7CAFFCD
:1048F0000646217F2046FFF7C5FF01900A2020567B
:10490000002858DDA819404246B2237CA0883246D0
:104910003946FFF7E4FDA080237C3246E088394623
:10492000FFF7ECFDE080A188267C02460B46002EB6
:1049300006D0012E0AD0022E40D0032E0FD146E021
:104940000A26A65773189BB2501907E0591B0A266E
:10495000491C5B1CA65789B29BB2B01880B200906C
:104960000398FFF75DFC002825D0002020726072BC
:104970002046A17DFFF790FF07462046E17DFFF727
:104980008BFF064600223946039800F029F80122E1
:104990003146039800F024F801212046FFF77CFF00
:1049A0000028EFD1092161562046A942E0DB817B36
:1049B000039880308174019805B0F0BD0A26A6578F
:1049C000991B491C5B1C89B29BB2421B04E00A265E
:1049D0004B19A6579BB2821B521C92B2401CBDE7DA
:1049E000F7B588B0089C0D466034277A607A059048
:1049F000089880300690A07AC01BC6B20196B542D6
:104A000000D20195A088E18804910599237C4AB2DF
:104A100079B203920091FFF762FD0290237C039A22
:104A200000990498FFF76AFD02460A98002801D011
:104A3000A17B03E0607B002809D1E17B06988174AB
:104A4000207C0090019B02990898FFF730F9B5424D
:104A500007D3A81BC5B205980027401CC0B205901B
:104A6000C9E778192072059860720BB0F0BD70B577
:104A70000D460146806D80311730FF2D0FD8612D16
:104A800001D3098902E0412D01D3C9880818417872
:104A900000291FD00278AA42F8D1801C70BD498934
:104AA0000C1826460021304600F016F804190221A1
:104AB000304600F011F8361DA842F3D320780102E9
:104AC0006078084306D0A84201D1E01C70BDA078F0
:104AD0000419F3E7002070BD4018017840780902FE
:104AE000401880B2704730B5044605460166603410
:104AF00000202073217E2046FFF7CEFEA072617E4B
:104B00002046FFF7C9FEE0728035A97CA173002919
:104B100002D00020E07330BD0120FBE78A4205D2BD
:104B2000834201D89A4203D9012070478342F9D8C1
:104B300000207047F0B58E465607760F0121B14030
:104B4000CFB2014680318C460025897C2C46012954
:104B500001D83D4600D03C460768D2083F7CD200D1
:104B60005743426BBFB2D119059A7144002A09D14B
:104B70000878284360400870491C5B1E1B041B0C0E
:104B8000F6D1F0BD0A78761C2A43624076075B1E98
:104B9000760F0A709BB2002E06D06A06150E6206CA
:104BA000140E002BEED1F0BD428F51186246927C5C
:104BB000012A02D80125012AF3D00124F1E70000DF
:104BC00008210170004870479804002070B5054620
:104BD00008782870487868708878A870C878E87075
:104BE000087928714879687188790C46A871E0794C
:104BF000E871207A2872607A6872A07AA872E07AE6
:104C0000E872207B2873607B6873A07BA873E07BCD
:104C1000E873207C287411212046FFF75DFF68822D
:104C200013212046FFF758FFA88215212046FFF7E1
:104C300053FFE88270BDFEB5054600242030017E9A
:104C40000291467E2868407C0190296827460B7CAB
:104C5000696B5F43FF043F0CC91900912846324637
:104C6000002100F0ADF8641C761C0298E4B2F6B2A4
:104C7000844202D201988642E7D3FEBDF3B50546D1
:104C800083B06030002101903F268172F6432846B0
:104C900000F074FB002428468030274600900498DA
:104CA0006A68017828469047144A0146904212D01B
:104CB0000498401C0490501E8142F0D02846FFF713
:104CC0008DFA87B23046403002D1009810268657C0
:104CD000E01984B2E3E701980A21415600290AD07D
:104CE000E01B0818009910228A56101884B2002E72
:104CF00001DDA01984B2204605B0F0BDFFFF000021
:104D000070B5014620310A7E0C46D10003688187C8
:104D1000197CC9004187647EE100C1875D7CA618CB
:104D2000AE4201D92A1B92B24030D20001808918CC
:104D30004180998A8180D98AC18070BD10B5FFF702
:104D4000DFFF10BD10B50146002240310A818B887B
:104D50004B818A81CA884B889A4201D3D31A8B81AE
:104D60000B88D21ACA81FFF7D8FB10BD10B5C178E5
:104D7000491CC9B2C1704278914202D30021C1706E
:104D800007E0837802789C184B1C9C4202D8891A51
:104D9000491C817010BDC178002907D0491EC9B2D5
:104DA000C17082788A4200D98170704741784A1E6A
:104DB000C2700022827002789142F6D9891AF3E714
:104DC0007CB56C46069D6171A2712371009501222C
:104DD00084686B460F21A0477CBDF8B504460020CF
:104DE0000090FF200025264620364006070E0120B1
:104DF000F07128465030C1B20022204600F0A4FADB
:104E0000F0796D1CC007C00F3843EDB2062DECD30E
:104E10002034A17A00290AD0002210290CD02029A0
:104E200010D0302916D0491EA1720098F8BD217A01
:104E30008142FAD011200BE0217A814205D06072C4
:104E4000212005E0617A814201D0A272EDE7302095
:104E5000A072EAE7217A8142E7D1A272637A012245
:104E60000620401E0C461D4614401540C0B2AC4200
:104E700004D15206120E0028F3D106205030C0B2E1
:104E80000090D2E70121002809D00278002A05D03D
:104E9000401C0A2AF9D1491CC9B2F6E708467047F6
:104EA00002460120002A07D00B78002B09D0491CAC
:104EB0000A2BF9D1904201D108467047401CC0B27C
:104EC000F2E70020704730B484680023A44630BC69
:104ED0001A460A21604730B484680023A44630BCD7
:104EE0001A461021604730B484680023A4460A465D
:104EF00030BC0B216047F8B515460E460446069FA8
:104F000000F008F86761A660E5602046236100F0C4
:104F100013F8F8BD07498160C16000220161026099
:104F2000416101462031CA708A718261FF20087197
:104F300008727047D152000830B484680023A44638
:104F400030BC1A4609216047080001D00A2800D168
:104F500000487047FFFF000030B404690023A446F6
:104F600030BC1A461921604713B50122046901AB10
:104F70001721A0471CBD30B404690023A44630BCEF
:104F80001A4618216047000038B5184818290DD076
:104F900004DC142907D0172923D10AE0192915D0D8
:104FA00020291ED11FE0FDF7DFFB1CE0002101706E
:104FB00019E00F4C07E001781D786554491C521E1A
:104FC0000170D2B25B1C002AF5D10CE07D21C90032
:104FD00000910378064A78210648FCF709F8002872
:104FE00001D0002038BD012038BD00002400002081
:104FF000840300205001002030B4C4680023A4467C
:1050000030BC1A461921604730B4C4680023A44656
:105010000A4630BC1621604730B4C4680023A44659
:105020000A4630BC1521604730B4C4681346A44614
:105030000A4630BC17216047F8B50C460546217872
:10504000641C182924D00EDC152919D0162917D074
:10505000172923D12078694608706A46012128461D
:10506000FFF7E2FF0AE0192912D0FE2916D12278B3
:10507000684602702921284600F066F9641CDEE7C4
:10508000227868460270EE6800232846B047F5E7AC
:105090000023EE681A462846B047D0E7F8BD30B482
:1050A000C4680023A44630BC1A461821604700009B
:1050B000FFB514460A462B4F0546143A81B0002628
:1050C00038781300FEF76AF8063404171C42454B83
:1050D000002802D02846FFF73FFF2846FFF74BFF86
:1050E00000212846FFF740FF21462846FFF73CFFF6
:1050F000012038702BE021462846FFF735FF26E0D7
:10510000002802D02846FFF727FF049F06E0182159
:10511000284600F01FF9183CE4B21837182C3A461C
:10512000F5D82146284600F015F90E4806700EE025
:10513000284620300279FF2A01D1782202712E6997
:1051400022462846049BB04705B0F0BD3E700120C2
:10515000FAE70028FAD02846FFF7FEFEF6E700201F
:10516000F2E700002500002070B5002345690446E1
:105170001A462821A8470023E5681A46142120462C
:10518000A84701224B21204600F0DEF820682921A3
:105190000279204600F0D8F800224B21204600F08A
:1051A000D3F8206829210279204600F0CDF80122A9
:1051B0004B21204600F0C8F820682921427920467A
:1051C00000F0C2F870BD0160897C203081707047AA
:1051D00070B50C46054600F019F8002811D1092CCD
:1051E0000AD00A2C00D070BD2846FFF7BDFF064943
:1051F0002846FFF721FF04E003492846CC31FFF79A
:10520000E2FF012070BD00005C5C0008F8B51F469D
:10521000144605460B2909D02E4620360D290ED0FE
:105220000E291DD00F2926D00020F8BD002A03D05A
:105230002649FFF701FF47E02449491FF9E7002A03
:1052400007D022490C31FFF7F7FE2868C07CB07008
:105250003AE01E49491DFFF7EFFE2868807CF6E71B
:10526000FFF71DFF81212846FFF7D6FE214628467D
:10527000FFF7CAFE25E0FFF712FF7879B178C0008A
:105280000818C6B240212846FFF7C6FE3109284655
:105290001031FFF7C1FE3107090F2846FFF7B4FEB2
:1052A000B979B02001432846FFF7AEFE38793A6855
:1052B000C006010E2846FFF7B7FE641E2406240E22
:1052C000F4D12846FFF798FE0120F8BD495C00089C
:1052D0000020704710B54C2930D008DC29291ED099
:1052E0002A2913D02B290FD02D2927D11BE04D2996
:1052F00024D004462034502919D00920C00654294E
:1053000018D055291AD11BE000BF17E00020FF215B
:10531000413100BF401C80B28842FAD30EE0012028
:10532000FBF71EFC0AE00520FEF776F906E00121F6
:10533000044800E01021FBF771FDE071012010BD71
:105340002021F8E70014004830B444690023A44643
:1053500030BC6047F8B515460E460446FFF70BFE15
:1053600040212046FFF700FE27692B4632461721D1
:105370002046B8472046FFF7EFFDF8BD002120305A
:105380008171704710B50246002915D00A2913D043
:105390001046203083791D4C002B10D05B1EDBB2F1
:1053A0008371108C89068005000C890E08431084D7
:1053B000002B00D0204610BD1448401C10BDFC2915
:1053C00004D305238371C807C00F1AE0F82904D35A
:1053D000042383718807800F13E0F02904D303238B
:1053E00083714807400F0CE0E02904D30223837146
:1053F0000807000F05E0C02905D301238371C80603
:10540000C00E1084D6E7084610BD0000FEFF000065
:105410000000000000000000010203040607080964
:105420000000000001020304090003020505040551
:1054300006101000FE0EFE0EFE00000000004A00E6
:105440002310A28391F43B49E7A4932A51920D497A
:10545000294913254AB22992869CA473D239E9A41A
:10546000A41F200600A047012108413144714804CF
:10547000220885284691B905230F462544D5D33007
:105480002451CB30443D0100000004FFFF524D2B5E
:105490000FA28397033910E7401A0EDF69831A665B
:1054A00051318B8A8354CCA262161507A998A56145
:1054B0009686492D09A334035B9A260FA2839D5338
:1054C0007264785072544773E270D0A19C906375F7
:1054D0002C1BD62CC7EA5012E548361C74025F53C9
:1054E000200CA6835D2C65611665615447D2E11DD1
:1054F000CCC11C4C86830EE6600E0E0F39188BBE95
:1055000028EFA183150E7256CEEA581D4A8721C98D
:10551000D16818D22C4CB37218C54994E4809823F2
:10552000619263661D1000005F000303040403051D
:10553000050E0F00FD0BFD0BFD01B203A205262099
:1055400005008C142109B28514074B8C0022093503
:10555000C51712CA28022317A9847912A144281159
:105560001D4212A1447408498412A144062417E77D
:105570007478C18A244289506244EA3042895022B8
:1055800092623806251BBC843DC4905E84A4384CCE
:105590000E92C3E230093522924944B21805002622
:1055A00013A9855B538950225D92549446329188A9
:1055B0005411270732C5141500280DE46D551291BA
:1055C00044A4DF443201290EE46C1532914CA45FEF
:1055D000441211002A0945BC56A1CA44012B0B787C
:1055E0008C7962B5434CAC062C08337C34120A002B
:1055F0002D0613A414032E06228514042F0FB48441
:105600007449A25848140B89623100300DB7845890
:1056100033891ABF49D446003108B4855826FD03A2
:10562000320DB7843815194D2A1CEAF5003310B72E
:10563000843815194DAA4496D268920A003412B8DB
:1056400084B8D2214D2252914964924354AC023520
:1056500010B7843816A9506A9D4A6924110900368A
:105660000FB7845824151155B244E326A900370F0B
:10567000B7841857A15428154A85524500380EB7EB
:1056800084381519374945C64D5201390EB784384B
:1056900015196F122B8D2422013A08828615740881
:1056A000013B0A937D35EA600905003C095695786F
:1056B000939174013D08379D1977C0013E0A5695B4
:1056C00018D3A96832033F0EB7853915194D2AD46E
:1056D0002A87AA01401DCD7C9EE5D9EA4825A2244F
:1056E000115144228A1A4549229ACCE450991C50FF
:1056F000054117BA849A72881C400E454542914C68
:10570000283A8484123159004211B8851A175991E8
:105710004D629249846C8709004317B9857B25CA7D
:10572000443A07C80172801C208748239459050019
:105730004410B9851B36D9442891F251229BD800D8
:10574000450CB7851907A9D68354EB01460CB785DC
:105750001907A9568B5457004715B9857B25CA44AC
:105760003A07C801322B55229450669400480BB872
:10577000851A421E0F451E054907B285141F024AAD
:105780000CB784B8FA4AA3552615004B15B9851AEB
:1057900042894CA4261152A912A148A62494480576
:1057A0004C09B7851852FDEB014D19BB851D7200E0
:1057B0001D50B5DE2CB1082516A1A8902221D28853
:1057C00016134E13B9851BD2629112A388482192F9
:1057D000841621B60A4F11BA857CC4D1482811F32A
:1057E0002C118A166900500DB8851A175991ED30A1
:1057F00011EB0C5111BA857CC4D1482811F3265104
:105800001B2D52045217B9851B27D94428114A640D
:10581000A2936C2294082542895400530FB8853A0C
:105820009651B1CC3C2656462500540AB8841887B8
:105830009858FF06550CB9851B52FE5522939500CA
:105840005616BA841A62B24428128AD644429194F7
:105850004C07C8214200571DBE841E4221514854A6
:1058600011919492949254441259442409AE0AC559
:105870004219005813B9841952AA44A6221D4F2573
:10588000322599444A155917BA841A6289502494CA
:1058900089842229990E9043E4103944085A0EB89D
:1058A000841987B05475AA3A553E045B09E46D1516
:1058B00026FD4F045C0CB48414B1982C4D96264BF5
:1058C0005D09E46C1524FD4F065E0A56B558325248
:1058D0008A88245F07186C188700600723CD15227B
:1058E0000161108785382455514524114924A38925
:1058F00000620EB78519522DA2891AB78A26006355
:105900000D868558230989A824519A00640EB7850D
:10591000B99A242A356E12C94822650E8685381434
:1059200011E930144E241400660CB5845413998880
:1059300024D327006712B76D599388A4C64D221946
:1059400049A4A4490500680BB78519522D2B35BE13
:10595000096909B28514A4C341006A0AE36C348A58
:1059600012FD72016B0EB68518424D14098924D1BF
:1059700089246C07B285141F026D138A851C12C915
:1059800016928824228948229288A4006E0A87856C
:105990001992951ADF046F0D87855933891A378953
:1059A000DA0800700FB76D1912D1448D5B4593541E
:1059B0001500710EB76D5912951A37896424916AD2
:1059C000720A85851692834C6F00730D8685381494
:1059D000519138AC482800740DA58435325145A644
:1059E00097900400750A87851932BE555604760FC4
:1059F00088841842A244A42D14A48A650077148ACE
:105A0000841A2211494452D1245113094542910864
:105A100000780E878417329A446D3893A8D10479A0
:105A200011B86C1842A244A42D14A48A55A54300B1
:105A30007A0B8684164699A24CD1007B0CE56C76D5
:105A400022992645351D057C06E16E140F7D0DE576
:105A50006D1642994625359D64007E09379D39A310
:105A6000494D0200000004FFFF000012000404057D
:105A700005030506111F00FA19F919FA00000000C4
:105A800001B020060030A6002A186AB5B724505489
:105A90001021214688688188941924D3040A0200C1
:105AA0002B101016CE46989E3DF80131C2F40C0022
:105AB0002C0E6559A5F0408D2423260904002D07DE
:105AC000A9F4AEF0032E08A518A6F040012F1A285D
:105AD00013A62657C2A41A254CAA51C2A41226D531
